{
	"contracts/NeroFitness.sol": {
		"NeroFitness": {
			"abi": [
				{
					"anonymous": false,
					"inputs": [
						{
							"indexed": false,
							"internalType": "address",
							"name": "userAddress",
							"type": "address"
						},
						{
							"indexed": false,
							"internalType": "uint256",
							"name": "points",
							"type": "uint256"
						}
					],
					"name": "PointsAdded",
					"type": "event"
				},
				{
					"anonymous": false,
					"inputs": [
						{
							"indexed": false,
							"internalType": "address",
							"name": "userAddress",
							"type": "address"
						},
						{
							"indexed": false,
							"internalType": "string",
							"name": "username",
							"type": "string"
						}
					],
					"name": "UserRegistered",
					"type": "event"
				},
				{
					"inputs": [
						{
							"internalType": "uint256",
							"name": "_points",
							"type": "uint256"
						}
					],
					"name": "addFitnessPoints",
					"outputs": [],
					"stateMutability": "nonpayable",
					"type": "function"
				},
				{
					"inputs": [],
					"name": "getUserPoints",
					"outputs": [
						{
							"internalType": "uint256",
							"name": "",
							"type": "uint256"
						}
					],
					"stateMutability": "view",
					"type": "function"
				},
				{
					"inputs": [
						{
							"internalType": "string",
							"name": "_username",
							"type": "string"
						}
					],
					"name": "registerUser",
					"outputs": [],
					"stateMutability": "nonpayable",
					"type": "function"
				},
				{
					"inputs": [
						{
							"internalType": "address",
							"name": "",
							"type": "address"
						}
					],
					"name": "users",
					"outputs": [
						{
							"internalType": "string",
							"name": "username",
							"type": "string"
						},
						{
							"internalType": "bool",
							"name": "isRegistered",
							"type": "bool"
						},
						{
							"internalType": "uint256",
							"name": "fitnessPoints",
							"type": "uint256"
						}
					],
					"stateMutability": "view",
					"type": "function"
				}
			],
			"devdoc": {
				"kind": "dev",
				"methods": {},
				"version": 1
			},
			"evm": {
				"assembly": "    /* \"contracts/NeroFitness.sol\":61:1081  contract NeroFitness {... */\n  mstore(0x40, 0x80)\n  callvalue\n  dup1\n  iszero\n  tag_1\n  jumpi\n  0x00\n  dup1\n  revert\ntag_1:\n  pop\n  dataSize(sub_0)\n  dup1\n  dataOffset(sub_0)\n  0x00\n  codecopy\n  0x00\n  return\nstop\n\nsub_0: assembly {\n        /* \"contracts/NeroFitness.sol\":61:1081  contract NeroFitness {... */\n      mstore(0x40, 0x80)\n      callvalue\n      dup1\n      iszero\n      tag_1\n      jumpi\n      0x00\n      dup1\n      revert\n    tag_1:\n      pop\n      jumpi(tag_2, lt(calldatasize, 0x04))\n      shr(0xe0, calldataload(0x00))\n      dup1\n      0x704f1b94\n      eq\n      tag_3\n      jumpi\n      dup1\n      0x86b7aa78\n      eq\n      tag_4\n      jumpi\n      dup1\n      0xa87430ba\n      eq\n      tag_5\n      jumpi\n      dup1\n      0xc4baff57\n      eq\n      tag_6\n      jumpi\n    tag_2:\n      0x00\n      dup1\n      revert\n        /* \"contracts/NeroFitness.sol\":389:637  function registerUser(string memory _username) public {... */\n    tag_3:\n      tag_7\n      0x04\n      dup1\n      calldatasize\n      sub\n      dup2\n      add\n      swap1\n      tag_8\n      swap2\n      swap1\n      tag_9\n      jump\t// in\n    tag_8:\n      tag_10\n      jump\t// in\n    tag_7:\n      stop\n        /* \"contracts/NeroFitness.sol\":649:881  function addFitnessPoints(uint256 _points) public {... */\n    tag_4:\n      tag_11\n      0x04\n      dup1\n      calldatasize\n      sub\n      dup2\n      add\n      swap1\n      tag_12\n      swap2\n      swap1\n      tag_13\n      jump\t// in\n    tag_12:\n      tag_14\n      jump\t// in\n    tag_11:\n      stop\n        /* \"contracts/NeroFitness.sol\":89:126  mapping(address => User) public users */\n    tag_5:\n      tag_15\n      0x04\n      dup1\n      calldatasize\n      sub\n      dup2\n      add\n      swap1\n      tag_16\n      swap2\n      swap1\n      tag_17\n      jump\t// in\n    tag_16:\n      tag_18\n      jump\t// in\n    tag_15:\n      mload(0x40)\n      tag_19\n      swap4\n      swap3\n      swap2\n      swap1\n      tag_20\n      jump\t// in\n    tag_19:\n      mload(0x40)\n      dup1\n      swap2\n      sub\n      swap1\n      return\n        /* \"contracts/NeroFitness.sol\":893:1078  function getUserPoints() public view returns (uint256) {... */\n    tag_6:\n      tag_21\n      tag_22\n      jump\t// in\n    tag_21:\n      mload(0x40)\n      tag_23\n      swap2\n      swap1\n      tag_24\n      jump\t// in\n    tag_23:\n      mload(0x40)\n      dup1\n      swap2\n      sub\n      swap1\n      return\n        /* \"contracts/NeroFitness.sol\":389:637  function registerUser(string memory _username) public {... */\n    tag_10:\n        /* \"contracts/NeroFitness.sol\":463:468  users */\n      0x00\n        /* \"contracts/NeroFitness.sol\":463:480  users[msg.sender] */\n      dup1\n        /* \"contracts/NeroFitness.sol\":469:479  msg.sender */\n      caller\n        /* \"contracts/NeroFitness.sol\":463:480  users[msg.sender] */\n      0xffffffffffffffffffffffffffffffffffffffff\n      and\n      0xffffffffffffffffffffffffffffffffffffffff\n      and\n      dup2\n      mstore\n      0x20\n      add\n      swap1\n      dup2\n      mstore\n      0x20\n      add\n      0x00\n      keccak256\n        /* \"contracts/NeroFitness.sol\":463:493  users[msg.sender].isRegistered */\n      0x01\n      add\n      0x00\n      swap1\n      sload\n      swap1\n      0x0100\n      exp\n      swap1\n      div\n      0xff\n      and\n        /* \"contracts/NeroFitness.sol\":462:493  !users[msg.sender].isRegistered */\n      iszero\n        /* \"contracts/NeroFitness.sol\":454:521  require(!users[msg.sender].isRegistered, \"User already registered\") */\n      tag_26\n      jumpi\n      mload(0x40)\n      0x08c379a000000000000000000000000000000000000000000000000000000000\n      dup2\n      mstore\n      0x04\n      add\n      tag_27\n      swap1\n      tag_28\n      jump\t// in\n    tag_27:\n      mload(0x40)\n      dup1\n      swap2\n      sub\n      swap1\n      revert\n    tag_26:\n        /* \"contracts/NeroFitness.sol\":552:576  User(_username, true, 0) */\n      mload(0x40)\n      dup1\n      0x60\n      add\n      0x40\n      mstore\n      dup1\n        /* \"contracts/NeroFitness.sol\":557:566  _username */\n      dup3\n        /* \"contracts/NeroFitness.sol\":552:576  User(_username, true, 0) */\n      dup2\n      mstore\n      0x20\n      add\n        /* \"contracts/NeroFitness.sol\":568:572  true */\n      0x01\n        /* \"contracts/NeroFitness.sol\":552:576  User(_username, true, 0) */\n      iszero\n      iszero\n      dup2\n      mstore\n      0x20\n      add\n        /* \"contracts/NeroFitness.sol\":574:575  0 */\n      0x00\n        /* \"contracts/NeroFitness.sol\":552:576  User(_username, true, 0) */\n      dup2\n      mstore\n      pop\n        /* \"contracts/NeroFitness.sol\":532:537  users */\n      0x00\n        /* \"contracts/NeroFitness.sol\":532:549  users[msg.sender] */\n      dup1\n        /* \"contracts/NeroFitness.sol\":538:548  msg.sender */\n      caller\n        /* \"contracts/NeroFitness.sol\":532:549  users[msg.sender] */\n      0xffffffffffffffffffffffffffffffffffffffff\n      and\n      0xffffffffffffffffffffffffffffffffffffffff\n      and\n      dup2\n      mstore\n      0x20\n      add\n      swap1\n      dup2\n      mstore\n      0x20\n      add\n      0x00\n      keccak256\n        /* \"contracts/NeroFitness.sol\":532:576  users[msg.sender] = User(_username, true, 0) */\n      0x00\n      dup3\n      add\n      mload\n      dup2\n      0x00\n      add\n      swap1\n      dup2\n      tag_29\n      swap2\n      swap1\n      tag_30\n      jump\t// in\n    tag_29:\n      pop\n      0x20\n      dup3\n      add\n      mload\n      dup2\n      0x01\n      add\n      exp(0x0100, 0x00)\n      dup2\n      sload\n      dup2\n      0xff\n      mul\n      not\n      and\n      swap1\n      dup4\n      iszero\n      iszero\n      mul\n      or\n      swap1\n      sstore\n      pop\n      0x40\n      dup3\n      add\n      mload\n      dup2\n      0x02\n      add\n      sstore\n      swap1\n      pop\n      pop\n        /* \"contracts/NeroFitness.sol\":592:629  UserRegistered(msg.sender, _username) */\n      0x48cac28ad4dc618e15f4c2dd5e97751182f166de97b25618318b2112aa951a2f\n        /* \"contracts/NeroFitness.sol\":607:617  msg.sender */\n      caller\n        /* \"contracts/NeroFitness.sol\":619:628  _username */\n      dup3\n        /* \"contracts/NeroFitness.sol\":592:629  UserRegistered(msg.sender, _username) */\n      mload(0x40)\n      tag_31\n      swap3\n      swap2\n      swap1\n      tag_32\n      jump\t// in\n    tag_31:\n      mload(0x40)\n      dup1\n      swap2\n      sub\n      swap1\n      log1\n        /* \"contracts/NeroFitness.sol\":389:637  function registerUser(string memory _username) public {... */\n      pop\n      jump\t// out\n        /* \"contracts/NeroFitness.sol\":649:881  function addFitnessPoints(uint256 _points) public {... */\n    tag_14:\n        /* \"contracts/NeroFitness.sol\":718:723  users */\n      0x00\n        /* \"contracts/NeroFitness.sol\":718:735  users[msg.sender] */\n      dup1\n        /* \"contracts/NeroFitness.sol\":724:734  msg.sender */\n      caller\n        /* \"contracts/NeroFitness.sol\":718:735  users[msg.sender] */\n      0xffffffffffffffffffffffffffffffffffffffff\n      and\n      0xffffffffffffffffffffffffffffffffffffffff\n      and\n      dup2\n      mstore\n      0x20\n      add\n      swap1\n      dup2\n      mstore\n      0x20\n      add\n      0x00\n      keccak256\n        /* \"contracts/NeroFitness.sol\":718:748  users[msg.sender].isRegistered */\n      0x01\n      add\n      0x00\n      swap1\n      sload\n      swap1\n      0x0100\n      exp\n      swap1\n      div\n      0xff\n      and\n        /* \"contracts/NeroFitness.sol\":710:772  require(users[msg.sender].isRegistered, \"User not registered\") */\n      tag_34\n      jumpi\n      mload(0x40)\n      0x08c379a000000000000000000000000000000000000000000000000000000000\n      dup2\n      mstore\n      0x04\n      add\n      tag_35\n      swap1\n      tag_36\n      jump\t// in\n    tag_35:\n      mload(0x40)\n      dup1\n      swap2\n      sub\n      swap1\n      revert\n    tag_34:\n        /* \"contracts/NeroFitness.sol\":818:825  _points */\n      dup1\n        /* \"contracts/NeroFitness.sol\":783:788  users */\n      0x00\n        /* \"contracts/NeroFitness.sol\":783:800  users[msg.sender] */\n      dup1\n        /* \"contracts/NeroFitness.sol\":789:799  msg.sender */\n      caller\n        /* \"contracts/NeroFitness.sol\":783:800  users[msg.sender] */\n      0xffffffffffffffffffffffffffffffffffffffff\n      and\n      0xffffffffffffffffffffffffffffffffffffffff\n      and\n      dup2\n      mstore\n      0x20\n      add\n      swap1\n      dup2\n      mstore\n      0x20\n      add\n      0x00\n      keccak256\n        /* \"contracts/NeroFitness.sol\":783:814  users[msg.sender].fitnessPoints */\n      0x02\n      add\n      0x00\n        /* \"contracts/NeroFitness.sol\":783:825  users[msg.sender].fitnessPoints += _points */\n      dup3\n      dup3\n      sload\n      tag_37\n      swap2\n      swap1\n      tag_38\n      jump\t// in\n    tag_37:\n      swap3\n      pop\n      pop\n      dup2\n      swap1\n      sstore\n      pop\n        /* \"contracts/NeroFitness.sol\":841:873  PointsAdded(msg.sender, _points) */\n      0x0fe6fcb45adaaa54f7e3491f6a7964049817f1e437f33587e634a4629fbcf3a6\n        /* \"contracts/NeroFitness.sol\":853:863  msg.sender */\n      caller\n        /* \"contracts/NeroFitness.sol\":865:872  _points */\n      dup3\n        /* \"contracts/NeroFitness.sol\":841:873  PointsAdded(msg.sender, _points) */\n      mload(0x40)\n      tag_39\n      swap3\n      swap2\n      swap1\n      tag_40\n      jump\t// in\n    tag_39:\n      mload(0x40)\n      dup1\n      swap2\n      sub\n      swap1\n      log1\n        /* \"contracts/NeroFitness.sol\":649:881  function addFitnessPoints(uint256 _points) public {... */\n      pop\n      jump\t// out\n        /* \"contracts/NeroFitness.sol\":89:126  mapping(address => User) public users */\n    tag_18:\n      mstore(0x20, 0x00)\n      dup1\n      0x00\n      mstore\n      keccak256(0x00, 0x40)\n      0x00\n      swap2\n      pop\n      swap1\n      pop\n      dup1\n      0x00\n      add\n      dup1\n      sload\n      tag_41\n      swap1\n      tag_42\n      jump\t// in\n    tag_41:\n      dup1\n      0x1f\n      add\n      0x20\n      dup1\n      swap2\n      div\n      mul\n      0x20\n      add\n      mload(0x40)\n      swap1\n      dup2\n      add\n      0x40\n      mstore\n      dup1\n      swap3\n      swap2\n      swap1\n      dup2\n      dup2\n      mstore\n      0x20\n      add\n      dup3\n      dup1\n      sload\n      tag_43\n      swap1\n      tag_42\n      jump\t// in\n    tag_43:\n      dup1\n      iszero\n      tag_44\n      jumpi\n      dup1\n      0x1f\n      lt\n      tag_45\n      jumpi\n      0x0100\n      dup1\n      dup4\n      sload\n      div\n      mul\n      dup4\n      mstore\n      swap2\n      0x20\n      add\n      swap2\n      jump(tag_44)\n    tag_45:\n      dup3\n      add\n      swap2\n      swap1\n      0x00\n      mstore\n      keccak256(0x00, 0x20)\n      swap1\n    tag_46:\n      dup2\n      sload\n      dup2\n      mstore\n      swap1\n      0x01\n      add\n      swap1\n      0x20\n      add\n      dup1\n      dup4\n      gt\n      tag_46\n      jumpi\n      dup3\n      swap1\n      sub\n      0x1f\n      and\n      dup3\n      add\n      swap2\n    tag_44:\n      pop\n      pop\n      pop\n      pop\n      pop\n      swap1\n      dup1\n      0x01\n      add\n      0x00\n      swap1\n      sload\n      swap1\n      0x0100\n      exp\n      swap1\n      div\n      0xff\n      and\n      swap1\n      dup1\n      0x02\n      add\n      sload\n      swap1\n      pop\n      dup4\n      jump\t// out\n        /* \"contracts/NeroFitness.sol\":893:1078  function getUserPoints() public view returns (uint256) {... */\n    tag_22:\n        /* \"contracts/NeroFitness.sol\":939:946  uint256 */\n      0x00\n        /* \"contracts/NeroFitness.sol\":967:972  users */\n      dup1\n        /* \"contracts/NeroFitness.sol\":967:984  users[msg.sender] */\n      0x00\n        /* \"contracts/NeroFitness.sol\":973:983  msg.sender */\n      caller\n        /* \"contracts/NeroFitness.sol\":967:984  users[msg.sender] */\n      0xffffffffffffffffffffffffffffffffffffffff\n      and\n      0xffffffffffffffffffffffffffffffffffffffff\n      and\n      dup2\n      mstore\n      0x20\n      add\n      swap1\n      dup2\n      mstore\n      0x20\n      add\n      0x00\n      keccak256\n        /* \"contracts/NeroFitness.sol\":967:997  users[msg.sender].isRegistered */\n      0x01\n      add\n      0x00\n      swap1\n      sload\n      swap1\n      0x0100\n      exp\n      swap1\n      div\n      0xff\n      and\n        /* \"contracts/NeroFitness.sol\":959:1021  require(users[msg.sender].isRegistered, \"User not registered\") */\n      tag_48\n      jumpi\n      mload(0x40)\n      0x08c379a000000000000000000000000000000000000000000000000000000000\n      dup2\n      mstore\n      0x04\n      add\n      tag_49\n      swap1\n      tag_36\n      jump\t// in\n    tag_49:\n      mload(0x40)\n      dup1\n      swap2\n      sub\n      swap1\n      revert\n    tag_48:\n        /* \"contracts/NeroFitness.sol\":1039:1044  users */\n      0x00\n        /* \"contracts/NeroFitness.sol\":1039:1056  users[msg.sender] */\n      dup1\n        /* \"contracts/NeroFitness.sol\":1045:1055  msg.sender */\n      caller\n        /* \"contracts/NeroFitness.sol\":1039:1056  users[msg.sender] */\n      0xffffffffffffffffffffffffffffffffffffffff\n      and\n      0xffffffffffffffffffffffffffffffffffffffff\n      and\n      dup2\n      mstore\n      0x20\n      add\n      swap1\n      dup2\n      mstore\n      0x20\n      add\n      0x00\n      keccak256\n        /* \"contracts/NeroFitness.sol\":1039:1070  users[msg.sender].fitnessPoints */\n      0x02\n      add\n      sload\n        /* \"contracts/NeroFitness.sol\":1032:1070  return users[msg.sender].fitnessPoints */\n      swap1\n      pop\n        /* \"contracts/NeroFitness.sol\":893:1078  function getUserPoints() public view returns (uint256) {... */\n      swap1\n      jump\t// out\n        /* \"#utility.yul\":7:82   */\n    tag_50:\n        /* \"#utility.yul\":40:46   */\n      0x00\n        /* \"#utility.yul\":73:75   */\n      0x40\n        /* \"#utility.yul\":67:76   */\n      mload\n        /* \"#utility.yul\":57:76   */\n      swap1\n      pop\n        /* \"#utility.yul\":7:82   */\n      swap1\n      jump\t// out\n        /* \"#utility.yul\":88:205   */\n    tag_51:\n        /* \"#utility.yul\":197:198   */\n      0x00\n        /* \"#utility.yul\":194:195   */\n      dup1\n        /* \"#utility.yul\":187:199   */\n      revert\n        /* \"#utility.yul\":211:328   */\n    tag_52:\n        /* \"#utility.yul\":320:321   */\n      0x00\n        /* \"#utility.yul\":317:318   */\n      dup1\n        /* \"#utility.yul\":310:322   */\n      revert\n        /* \"#utility.yul\":334:451   */\n    tag_53:\n        /* \"#utility.yul\":443:444   */\n      0x00\n        /* \"#utility.yul\":440:441   */\n      dup1\n        /* \"#utility.yul\":433:445   */\n      revert\n        /* \"#utility.yul\":457:574   */\n    tag_54:\n        /* \"#utility.yul\":566:567   */\n      0x00\n        /* \"#utility.yul\":563:564   */\n      dup1\n        /* \"#utility.yul\":556:568   */\n      revert\n        /* \"#utility.yul\":580:682   */\n    tag_55:\n        /* \"#utility.yul\":621:627   */\n      0x00\n        /* \"#utility.yul\":672:674   */\n      0x1f\n        /* \"#utility.yul\":668:675   */\n      not\n        /* \"#utility.yul\":663:665   */\n      0x1f\n        /* \"#utility.yul\":656:661   */\n      dup4\n        /* \"#utility.yul\":652:666   */\n      add\n        /* \"#utility.yul\":648:676   */\n      and\n        /* \"#utility.yul\":638:676   */\n      swap1\n      pop\n        /* \"#utility.yul\":580:682   */\n      swap2\n      swap1\n      pop\n      jump\t// out\n        /* \"#utility.yul\":688:868   */\n    tag_56:\n        /* \"#utility.yul\":736:813   */\n      0x4e487b7100000000000000000000000000000000000000000000000000000000\n        /* \"#utility.yul\":733:734   */\n      0x00\n        /* \"#utility.yul\":726:814   */\n      mstore\n        /* \"#utility.yul\":833:837   */\n      0x41\n        /* \"#utility.yul\":830:831   */\n      0x04\n        /* \"#utility.yul\":823:838   */\n      mstore\n        /* \"#utility.yul\":857:861   */\n      0x24\n        /* \"#utility.yul\":854:855   */\n      0x00\n        /* \"#utility.yul\":847:862   */\n      revert\n        /* \"#utility.yul\":874:1155   */\n    tag_57:\n        /* \"#utility.yul\":957:984   */\n      tag_108\n        /* \"#utility.yul\":979:983   */\n      dup3\n        /* \"#utility.yul\":957:984   */\n      tag_55\n      jump\t// in\n    tag_108:\n        /* \"#utility.yul\":949:955   */\n      dup2\n        /* \"#utility.yul\":945:985   */\n      add\n        /* \"#utility.yul\":1087:1093   */\n      dup2\n        /* \"#utility.yul\":1075:1085   */\n      dup2\n        /* \"#utility.yul\":1072:1094   */\n      lt\n        /* \"#utility.yul\":1051:1069   */\n      0xffffffffffffffff\n        /* \"#utility.yul\":1039:1049   */\n      dup3\n        /* \"#utility.yul\":1036:1070   */\n      gt\n        /* \"#utility.yul\":1033:1095   */\n      or\n        /* \"#utility.yul\":1030:1118   */\n      iszero\n      tag_109\n      jumpi\n        /* \"#utility.yul\":1098:1116   */\n      tag_110\n      tag_56\n      jump\t// in\n    tag_110:\n        /* \"#utility.yul\":1030:1118   */\n    tag_109:\n        /* \"#utility.yul\":1138:1148   */\n      dup1\n        /* \"#utility.yul\":1134:1136   */\n      0x40\n        /* \"#utility.yul\":1127:1149   */\n      mstore\n        /* \"#utility.yul\":917:1155   */\n      pop\n        /* \"#utility.yul\":874:1155   */\n      pop\n      pop\n      jump\t// out\n        /* \"#utility.yul\":1161:1290   */\n    tag_58:\n        /* \"#utility.yul\":1195:1201   */\n      0x00\n        /* \"#utility.yul\":1222:1242   */\n      tag_112\n      tag_50\n      jump\t// in\n    tag_112:\n        /* \"#utility.yul\":1212:1242   */\n      swap1\n      pop\n        /* \"#utility.yul\":1251:1284   */\n      tag_113\n        /* \"#utility.yul\":1279:1283   */\n      dup3\n        /* \"#utility.yul\":1271:1277   */\n      dup3\n        /* \"#utility.yul\":1251:1284   */\n      tag_57\n      jump\t// in\n    tag_113:\n        /* \"#utility.yul\":1161:1290   */\n      swap2\n      swap1\n      pop\n      jump\t// out\n        /* \"#utility.yul\":1296:1604   */\n    tag_59:\n        /* \"#utility.yul\":1358:1362   */\n      0x00\n        /* \"#utility.yul\":1448:1466   */\n      0xffffffffffffffff\n        /* \"#utility.yul\":1440:1446   */\n      dup3\n        /* \"#utility.yul\":1437:1467   */\n      gt\n        /* \"#utility.yul\":1434:1490   */\n      iszero\n      tag_115\n      jumpi\n        /* \"#utility.yul\":1470:1488   */\n      tag_116\n      tag_56\n      jump\t// in\n    tag_116:\n        /* \"#utility.yul\":1434:1490   */\n    tag_115:\n        /* \"#utility.yul\":1508:1537   */\n      tag_117\n        /* \"#utility.yul\":1530:1536   */\n      dup3\n        /* \"#utility.yul\":1508:1537   */\n      tag_55\n      jump\t// in\n    tag_117:\n        /* \"#utility.yul\":1500:1537   */\n      swap1\n      pop\n        /* \"#utility.yul\":1592:1596   */\n      0x20\n        /* \"#utility.yul\":1586:1590   */\n      dup2\n        /* \"#utility.yul\":1582:1597   */\n      add\n        /* \"#utility.yul\":1574:1597   */\n      swap1\n      pop\n        /* \"#utility.yul\":1296:1604   */\n      swap2\n      swap1\n      pop\n      jump\t// out\n        /* \"#utility.yul\":1610:1758   */\n    tag_60:\n        /* \"#utility.yul\":1708:1714   */\n      dup3\n        /* \"#utility.yul\":1703:1706   */\n      dup2\n        /* \"#utility.yul\":1698:1701   */\n      dup4\n        /* \"#utility.yul\":1685:1715   */\n      calldatacopy\n        /* \"#utility.yul\":1749:1750   */\n      0x00\n        /* \"#utility.yul\":1740:1746   */\n      dup4\n        /* \"#utility.yul\":1735:1738   */\n      dup4\n        /* \"#utility.yul\":1731:1747   */\n      add\n        /* \"#utility.yul\":1724:1751   */\n      mstore\n        /* \"#utility.yul\":1610:1758   */\n      pop\n      pop\n      pop\n      jump\t// out\n        /* \"#utility.yul\":1764:2189   */\n    tag_61:\n        /* \"#utility.yul\":1842:1847   */\n      0x00\n        /* \"#utility.yul\":1867:1933   */\n      tag_120\n        /* \"#utility.yul\":1883:1932   */\n      tag_121\n        /* \"#utility.yul\":1925:1931   */\n      dup5\n        /* \"#utility.yul\":1883:1932   */\n      tag_59\n      jump\t// in\n    tag_121:\n        /* \"#utility.yul\":1867:1933   */\n      tag_58\n      jump\t// in\n    tag_120:\n        /* \"#utility.yul\":1858:1933   */\n      swap1\n      pop\n        /* \"#utility.yul\":1956:1962   */\n      dup3\n        /* \"#utility.yul\":1949:1954   */\n      dup2\n        /* \"#utility.yul\":1942:1963   */\n      mstore\n        /* \"#utility.yul\":1994:1998   */\n      0x20\n        /* \"#utility.yul\":1987:1992   */\n      dup2\n        /* \"#utility.yul\":1983:1999   */\n      add\n        /* \"#utility.yul\":2032:2035   */\n      dup5\n        /* \"#utility.yul\":2023:2029   */\n      dup5\n        /* \"#utility.yul\":2018:2021   */\n      dup5\n        /* \"#utility.yul\":2014:2030   */\n      add\n        /* \"#utility.yul\":2011:2036   */\n      gt\n        /* \"#utility.yul\":2008:2120   */\n      iszero\n      tag_122\n      jumpi\n        /* \"#utility.yul\":2039:2118   */\n      tag_123\n      tag_54\n      jump\t// in\n    tag_123:\n        /* \"#utility.yul\":2008:2120   */\n    tag_122:\n        /* \"#utility.yul\":2129:2183   */\n      tag_124\n        /* \"#utility.yul\":2176:2182   */\n      dup5\n        /* \"#utility.yul\":2171:2174   */\n      dup3\n        /* \"#utility.yul\":2166:2169   */\n      dup6\n        /* \"#utility.yul\":2129:2183   */\n      tag_60\n      jump\t// in\n    tag_124:\n        /* \"#utility.yul\":1848:2189   */\n      pop\n        /* \"#utility.yul\":1764:2189   */\n      swap4\n      swap3\n      pop\n      pop\n      pop\n      jump\t// out\n        /* \"#utility.yul\":2209:2549   */\n    tag_62:\n        /* \"#utility.yul\":2265:2270   */\n      0x00\n        /* \"#utility.yul\":2314:2317   */\n      dup3\n        /* \"#utility.yul\":2307:2311   */\n      0x1f\n        /* \"#utility.yul\":2299:2305   */\n      dup4\n        /* \"#utility.yul\":2295:2312   */\n      add\n        /* \"#utility.yul\":2291:2318   */\n      slt\n        /* \"#utility.yul\":2281:2403   */\n      tag_126\n      jumpi\n        /* \"#utility.yul\":2322:2401   */\n      tag_127\n      tag_53\n      jump\t// in\n    tag_127:\n        /* \"#utility.yul\":2281:2403   */\n    tag_126:\n        /* \"#utility.yul\":2439:2445   */\n      dup2\n        /* \"#utility.yul\":2426:2446   */\n      calldataload\n        /* \"#utility.yul\":2464:2543   */\n      tag_128\n        /* \"#utility.yul\":2539:2542   */\n      dup5\n        /* \"#utility.yul\":2531:2537   */\n      dup3\n        /* \"#utility.yul\":2524:2528   */\n      0x20\n        /* \"#utility.yul\":2516:2522   */\n      dup7\n        /* \"#utility.yul\":2512:2529   */\n      add\n        /* \"#utility.yul\":2464:2543   */\n      tag_61\n      jump\t// in\n    tag_128:\n        /* \"#utility.yul\":2455:2543   */\n      swap2\n      pop\n        /* \"#utility.yul\":2271:2549   */\n      pop\n        /* \"#utility.yul\":2209:2549   */\n      swap3\n      swap2\n      pop\n      pop\n      jump\t// out\n        /* \"#utility.yul\":2555:3064   */\n    tag_9:\n        /* \"#utility.yul\":2624:2630   */\n      0x00\n        /* \"#utility.yul\":2673:2675   */\n      0x20\n        /* \"#utility.yul\":2661:2670   */\n      dup3\n        /* \"#utility.yul\":2652:2659   */\n      dup5\n        /* \"#utility.yul\":2648:2671   */\n      sub\n        /* \"#utility.yul\":2644:2676   */\n      slt\n        /* \"#utility.yul\":2641:2760   */\n      iszero\n      tag_130\n      jumpi\n        /* \"#utility.yul\":2679:2758   */\n      tag_131\n      tag_51\n      jump\t// in\n    tag_131:\n        /* \"#utility.yul\":2641:2760   */\n    tag_130:\n        /* \"#utility.yul\":2827:2828   */\n      0x00\n        /* \"#utility.yul\":2816:2825   */\n      dup3\n        /* \"#utility.yul\":2812:2829   */\n      add\n        /* \"#utility.yul\":2799:2830   */\n      calldataload\n        /* \"#utility.yul\":2857:2875   */\n      0xffffffffffffffff\n        /* \"#utility.yul\":2849:2855   */\n      dup2\n        /* \"#utility.yul\":2846:2876   */\n      gt\n        /* \"#utility.yul\":2843:2960   */\n      iszero\n      tag_132\n      jumpi\n        /* \"#utility.yul\":2879:2958   */\n      tag_133\n      tag_52\n      jump\t// in\n    tag_133:\n        /* \"#utility.yul\":2843:2960   */\n    tag_132:\n        /* \"#utility.yul\":2984:3047   */\n      tag_134\n        /* \"#utility.yul\":3039:3046   */\n      dup5\n        /* \"#utility.yul\":3030:3036   */\n      dup3\n        /* \"#utility.yul\":3019:3028   */\n      dup6\n        /* \"#utility.yul\":3015:3037   */\n      add\n        /* \"#utility.yul\":2984:3047   */\n      tag_62\n      jump\t// in\n    tag_134:\n        /* \"#utility.yul\":2974:3047   */\n      swap2\n      pop\n        /* \"#utility.yul\":2770:3057   */\n      pop\n        /* \"#utility.yul\":2555:3064   */\n      swap3\n      swap2\n      pop\n      pop\n      jump\t// out\n        /* \"#utility.yul\":3070:3147   */\n    tag_63:\n        /* \"#utility.yul\":3107:3114   */\n      0x00\n        /* \"#utility.yul\":3136:3141   */\n      dup2\n        /* \"#utility.yul\":3125:3141   */\n      swap1\n      pop\n        /* \"#utility.yul\":3070:3147   */\n      swap2\n      swap1\n      pop\n      jump\t// out\n        /* \"#utility.yul\":3153:3275   */\n    tag_64:\n        /* \"#utility.yul\":3226:3250   */\n      tag_137\n        /* \"#utility.yul\":3244:3249   */\n      dup2\n        /* \"#utility.yul\":3226:3250   */\n      tag_63\n      jump\t// in\n    tag_137:\n        /* \"#utility.yul\":3219:3224   */\n      dup2\n        /* \"#utility.yul\":3216:3251   */\n      eq\n        /* \"#utility.yul\":3206:3269   */\n      tag_138\n      jumpi\n        /* \"#utility.yul\":3265:3266   */\n      0x00\n        /* \"#utility.yul\":3262:3263   */\n      dup1\n        /* \"#utility.yul\":3255:3267   */\n      revert\n        /* \"#utility.yul\":3206:3269   */\n    tag_138:\n        /* \"#utility.yul\":3153:3275   */\n      pop\n      jump\t// out\n        /* \"#utility.yul\":3281:3420   */\n    tag_65:\n        /* \"#utility.yul\":3327:3332   */\n      0x00\n        /* \"#utility.yul\":3365:3371   */\n      dup2\n        /* \"#utility.yul\":3352:3372   */\n      calldataload\n        /* \"#utility.yul\":3343:3372   */\n      swap1\n      pop\n        /* \"#utility.yul\":3381:3414   */\n      tag_140\n        /* \"#utility.yul\":3408:3413   */\n      dup2\n        /* \"#utility.yul\":3381:3414   */\n      tag_64\n      jump\t// in\n    tag_140:\n        /* \"#utility.yul\":3281:3420   */\n      swap3\n      swap2\n      pop\n      pop\n      jump\t// out\n        /* \"#utility.yul\":3426:3755   */\n    tag_13:\n        /* \"#utility.yul\":3485:3491   */\n      0x00\n        /* \"#utility.yul\":3534:3536   */\n      0x20\n        /* \"#utility.yul\":3522:3531   */\n      dup3\n        /* \"#utility.yul\":3513:3520   */\n      dup5\n        /* \"#utility.yul\":3509:3532   */\n      sub\n        /* \"#utility.yul\":3505:3537   */\n      slt\n        /* \"#utility.yul\":3502:3621   */\n      iszero\n      tag_142\n      jumpi\n        /* \"#utility.yul\":3540:3619   */\n      tag_143\n      tag_51\n      jump\t// in\n    tag_143:\n        /* \"#utility.yul\":3502:3621   */\n    tag_142:\n        /* \"#utility.yul\":3660:3661   */\n      0x00\n        /* \"#utility.yul\":3685:3738   */\n      tag_144\n        /* \"#utility.yul\":3730:3737   */\n      dup5\n        /* \"#utility.yul\":3721:3727   */\n      dup3\n        /* \"#utility.yul\":3710:3719   */\n      dup6\n        /* \"#utility.yul\":3706:3728   */\n      add\n        /* \"#utility.yul\":3685:3738   */\n      tag_65\n      jump\t// in\n    tag_144:\n        /* \"#utility.yul\":3675:3738   */\n      swap2\n      pop\n        /* \"#utility.yul\":3631:3748   */\n      pop\n        /* \"#utility.yul\":3426:3755   */\n      swap3\n      swap2\n      pop\n      pop\n      jump\t// out\n        /* \"#utility.yul\":3761:3887   */\n    tag_66:\n        /* \"#utility.yul\":3798:3805   */\n      0x00\n        /* \"#utility.yul\":3838:3880   */\n      0xffffffffffffffffffffffffffffffffffffffff\n        /* \"#utility.yul\":3831:3836   */\n      dup3\n        /* \"#utility.yul\":3827:3881   */\n      and\n        /* \"#utility.yul\":3816:3881   */\n      swap1\n      pop\n        /* \"#utility.yul\":3761:3887   */\n      swap2\n      swap1\n      pop\n      jump\t// out\n        /* \"#utility.yul\":3893:3989   */\n    tag_67:\n        /* \"#utility.yul\":3930:3937   */\n      0x00\n        /* \"#utility.yul\":3959:3983   */\n      tag_147\n        /* \"#utility.yul\":3977:3982   */\n      dup3\n        /* \"#utility.yul\":3959:3983   */\n      tag_66\n      jump\t// in\n    tag_147:\n        /* \"#utility.yul\":3948:3983   */\n      swap1\n      pop\n        /* \"#utility.yul\":3893:3989   */\n      swap2\n      swap1\n      pop\n      jump\t// out\n        /* \"#utility.yul\":3995:4117   */\n    tag_68:\n        /* \"#utility.yul\":4068:4092   */\n      tag_149\n        /* \"#utility.yul\":4086:4091   */\n      dup2\n        /* \"#utility.yul\":4068:4092   */\n      tag_67\n      jump\t// in\n    tag_149:\n        /* \"#utility.yul\":4061:4066   */\n      dup2\n        /* \"#utility.yul\":4058:4093   */\n      eq\n        /* \"#utility.yul\":4048:4111   */\n      tag_150\n      jumpi\n        /* \"#utility.yul\":4107:4108   */\n      0x00\n        /* \"#utility.yul\":4104:4105   */\n      dup1\n        /* \"#utility.yul\":4097:4109   */\n      revert\n        /* \"#utility.yul\":4048:4111   */\n    tag_150:\n        /* \"#utility.yul\":3995:4117   */\n      pop\n      jump\t// out\n        /* \"#utility.yul\":4123:4262   */\n    tag_69:\n        /* \"#utility.yul\":4169:4174   */\n      0x00\n        /* \"#utility.yul\":4207:4213   */\n      dup2\n        /* \"#utility.yul\":4194:4214   */\n      calldataload\n        /* \"#utility.yul\":4185:4214   */\n      swap1\n      pop\n        /* \"#utility.yul\":4223:4256   */\n      tag_152\n        /* \"#utility.yul\":4250:4255   */\n      dup2\n        /* \"#utility.yul\":4223:4256   */\n      tag_68\n      jump\t// in\n    tag_152:\n        /* \"#utility.yul\":4123:4262   */\n      swap3\n      swap2\n      pop\n      pop\n      jump\t// out\n        /* \"#utility.yul\":4268:4597   */\n    tag_17:\n        /* \"#utility.yul\":4327:4333   */\n      0x00\n        /* \"#utility.yul\":4376:4378   */\n      0x20\n        /* \"#utility.yul\":4364:4373   */\n      dup3\n        /* \"#utility.yul\":4355:4362   */\n      dup5\n        /* \"#utility.yul\":4351:4374   */\n      sub\n        /* \"#utility.yul\":4347:4379   */\n      slt\n        /* \"#utility.yul\":4344:4463   */\n      iszero\n      tag_154\n      jumpi\n        /* \"#utility.yul\":4382:4461   */\n      tag_155\n      tag_51\n      jump\t// in\n    tag_155:\n        /* \"#utility.yul\":4344:4463   */\n    tag_154:\n        /* \"#utility.yul\":4502:4503   */\n      0x00\n        /* \"#utility.yul\":4527:4580   */\n      tag_156\n        /* \"#utility.yul\":4572:4579   */\n      dup5\n        /* \"#utility.yul\":4563:4569   */\n      dup3\n        /* \"#utility.yul\":4552:4561   */\n      dup6\n        /* \"#utility.yul\":4548:4570   */\n      add\n        /* \"#utility.yul\":4527:4580   */\n      tag_69\n      jump\t// in\n    tag_156:\n        /* \"#utility.yul\":4517:4580   */\n      swap2\n      pop\n        /* \"#utility.yul\":4473:4590   */\n      pop\n        /* \"#utility.yul\":4268:4597   */\n      swap3\n      swap2\n      pop\n      pop\n      jump\t// out\n        /* \"#utility.yul\":4603:4702   */\n    tag_70:\n        /* \"#utility.yul\":4655:4661   */\n      0x00\n        /* \"#utility.yul\":4689:4694   */\n      dup2\n        /* \"#utility.yul\":4683:4695   */\n      mload\n        /* \"#utility.yul\":4673:4695   */\n      swap1\n      pop\n        /* \"#utility.yul\":4603:4702   */\n      swap2\n      swap1\n      pop\n      jump\t// out\n        /* \"#utility.yul\":4708:4877   */\n    tag_71:\n        /* \"#utility.yul\":4792:4803   */\n      0x00\n        /* \"#utility.yul\":4826:4832   */\n      dup3\n        /* \"#utility.yul\":4821:4824   */\n      dup3\n        /* \"#utility.yul\":4814:4833   */\n      mstore\n        /* \"#utility.yul\":4866:4870   */\n      0x20\n        /* \"#utility.yul\":4861:4864   */\n      dup3\n        /* \"#utility.yul\":4857:4871   */\n      add\n        /* \"#utility.yul\":4842:4871   */\n      swap1\n      pop\n        /* \"#utility.yul\":4708:4877   */\n      swap3\n      swap2\n      pop\n      pop\n      jump\t// out\n        /* \"#utility.yul\":4883:5022   */\n    tag_72:\n        /* \"#utility.yul\":4972:4978   */\n      dup3\n        /* \"#utility.yul\":4967:4970   */\n      dup2\n        /* \"#utility.yul\":4962:4965   */\n      dup4\n        /* \"#utility.yul\":4956:4979   */\n      mcopy\n        /* \"#utility.yul\":5013:5014   */\n      0x00\n        /* \"#utility.yul\":5004:5010   */\n      dup4\n        /* \"#utility.yul\":4999:5002   */\n      dup4\n        /* \"#utility.yul\":4995:5011   */\n      add\n        /* \"#utility.yul\":4988:5015   */\n      mstore\n        /* \"#utility.yul\":4883:5022   */\n      pop\n      pop\n      pop\n      jump\t// out\n        /* \"#utility.yul\":5028:5405   */\n    tag_73:\n        /* \"#utility.yul\":5116:5119   */\n      0x00\n        /* \"#utility.yul\":5144:5183   */\n      tag_161\n        /* \"#utility.yul\":5177:5182   */\n      dup3\n        /* \"#utility.yul\":5144:5183   */\n      tag_70\n      jump\t// in\n    tag_161:\n        /* \"#utility.yul\":5199:5270   */\n      tag_162\n        /* \"#utility.yul\":5263:5269   */\n      dup2\n        /* \"#utility.yul\":5258:5261   */\n      dup6\n        /* \"#utility.yul\":5199:5270   */\n      tag_71\n      jump\t// in\n    tag_162:\n        /* \"#utility.yul\":5192:5270   */\n      swap4\n      pop\n        /* \"#utility.yul\":5279:5344   */\n      tag_163\n        /* \"#utility.yul\":5337:5343   */\n      dup2\n        /* \"#utility.yul\":5332:5335   */\n      dup6\n        /* \"#utility.yul\":5325:5329   */\n      0x20\n        /* \"#utility.yul\":5318:5323   */\n      dup7\n        /* \"#utility.yul\":5314:5330   */\n      add\n        /* \"#utility.yul\":5279:5344   */\n      tag_72\n      jump\t// in\n    tag_163:\n        /* \"#utility.yul\":5369:5398   */\n      tag_164\n        /* \"#utility.yul\":5391:5397   */\n      dup2\n        /* \"#utility.yul\":5369:5398   */\n      tag_55\n      jump\t// in\n    tag_164:\n        /* \"#utility.yul\":5364:5367   */\n      dup5\n        /* \"#utility.yul\":5360:5399   */\n      add\n        /* \"#utility.yul\":5353:5399   */\n      swap2\n      pop\n        /* \"#utility.yul\":5120:5405   */\n      pop\n        /* \"#utility.yul\":5028:5405   */\n      swap3\n      swap2\n      pop\n      pop\n      jump\t// out\n        /* \"#utility.yul\":5411:5501   */\n    tag_74:\n        /* \"#utility.yul\":5445:5452   */\n      0x00\n        /* \"#utility.yul\":5488:5493   */\n      dup2\n        /* \"#utility.yul\":5481:5494   */\n      iszero\n        /* \"#utility.yul\":5474:5495   */\n      iszero\n        /* \"#utility.yul\":5463:5495   */\n      swap1\n      pop\n        /* \"#utility.yul\":5411:5501   */\n      swap2\n      swap1\n      pop\n      jump\t// out\n        /* \"#utility.yul\":5507:5616   */\n    tag_75:\n        /* \"#utility.yul\":5588:5609   */\n      tag_167\n        /* \"#utility.yul\":5603:5608   */\n      dup2\n        /* \"#utility.yul\":5588:5609   */\n      tag_74\n      jump\t// in\n    tag_167:\n        /* \"#utility.yul\":5583:5586   */\n      dup3\n        /* \"#utility.yul\":5576:5610   */\n      mstore\n        /* \"#utility.yul\":5507:5616   */\n      pop\n      pop\n      jump\t// out\n        /* \"#utility.yul\":5622:5740   */\n    tag_76:\n        /* \"#utility.yul\":5709:5733   */\n      tag_169\n        /* \"#utility.yul\":5727:5732   */\n      dup2\n        /* \"#utility.yul\":5709:5733   */\n      tag_63\n      jump\t// in\n    tag_169:\n        /* \"#utility.yul\":5704:5707   */\n      dup3\n        /* \"#utility.yul\":5697:5734   */\n      mstore\n        /* \"#utility.yul\":5622:5740   */\n      pop\n      pop\n      jump\t// out\n        /* \"#utility.yul\":5746:6267   */\n    tag_20:\n        /* \"#utility.yul\":5909:5913   */\n      0x00\n        /* \"#utility.yul\":5947:5949   */\n      0x60\n        /* \"#utility.yul\":5936:5945   */\n      dup3\n        /* \"#utility.yul\":5932:5950   */\n      add\n        /* \"#utility.yul\":5924:5950   */\n      swap1\n      pop\n        /* \"#utility.yul\":5996:6005   */\n      dup2\n        /* \"#utility.yul\":5990:5994   */\n      dup2\n        /* \"#utility.yul\":5986:6006   */\n      sub\n        /* \"#utility.yul\":5982:5983   */\n      0x00\n        /* \"#utility.yul\":5971:5980   */\n      dup4\n        /* \"#utility.yul\":5967:5984   */\n      add\n        /* \"#utility.yul\":5960:6007   */\n      mstore\n        /* \"#utility.yul\":6024:6102   */\n      tag_171\n        /* \"#utility.yul\":6097:6101   */\n      dup2\n        /* \"#utility.yul\":6088:6094   */\n      dup7\n        /* \"#utility.yul\":6024:6102   */\n      tag_73\n      jump\t// in\n    tag_171:\n        /* \"#utility.yul\":6016:6102   */\n      swap1\n      pop\n        /* \"#utility.yul\":6112:6178   */\n      tag_172\n        /* \"#utility.yul\":6174:6176   */\n      0x20\n        /* \"#utility.yul\":6163:6172   */\n      dup4\n        /* \"#utility.yul\":6159:6177   */\n      add\n        /* \"#utility.yul\":6150:6156   */\n      dup6\n        /* \"#utility.yul\":6112:6178   */\n      tag_75\n      jump\t// in\n    tag_172:\n        /* \"#utility.yul\":6188:6260   */\n      tag_173\n        /* \"#utility.yul\":6256:6258   */\n      0x40\n        /* \"#utility.yul\":6245:6254   */\n      dup4\n        /* \"#utility.yul\":6241:6259   */\n      add\n        /* \"#utility.yul\":6232:6238   */\n      dup5\n        /* \"#utility.yul\":6188:6260   */\n      tag_76\n      jump\t// in\n    tag_173:\n        /* \"#utility.yul\":5746:6267   */\n      swap5\n      swap4\n      pop\n      pop\n      pop\n      pop\n      jump\t// out\n        /* \"#utility.yul\":6273:6495   */\n    tag_24:\n        /* \"#utility.yul\":6366:6370   */\n      0x00\n        /* \"#utility.yul\":6404:6406   */\n      0x20\n        /* \"#utility.yul\":6393:6402   */\n      dup3\n        /* \"#utility.yul\":6389:6407   */\n      add\n        /* \"#utility.yul\":6381:6407   */\n      swap1\n      pop\n        /* \"#utility.yul\":6417:6488   */\n      tag_175\n        /* \"#utility.yul\":6485:6486   */\n      0x00\n        /* \"#utility.yul\":6474:6483   */\n      dup4\n        /* \"#utility.yul\":6470:6487   */\n      add\n        /* \"#utility.yul\":6461:6467   */\n      dup5\n        /* \"#utility.yul\":6417:6488   */\n      tag_76\n      jump\t// in\n    tag_175:\n        /* \"#utility.yul\":6273:6495   */\n      swap3\n      swap2\n      pop\n      pop\n      jump\t// out\n        /* \"#utility.yul\":6501:6674   */\n    tag_77:\n        /* \"#utility.yul\":6641:6666   */\n      0x5573657220616c72656164792072656769737465726564000000000000000000\n        /* \"#utility.yul\":6637:6638   */\n      0x00\n        /* \"#utility.yul\":6629:6635   */\n      dup3\n        /* \"#utility.yul\":6625:6639   */\n      add\n        /* \"#utility.yul\":6618:6667   */\n      mstore\n        /* \"#utility.yul\":6501:6674   */\n      pop\n      jump\t// out\n        /* \"#utility.yul\":6680:7046   */\n    tag_78:\n        /* \"#utility.yul\":6822:6825   */\n      0x00\n        /* \"#utility.yul\":6843:6910   */\n      tag_178\n        /* \"#utility.yul\":6907:6909   */\n      0x17\n        /* \"#utility.yul\":6902:6905   */\n      dup4\n        /* \"#utility.yul\":6843:6910   */\n      tag_71\n      jump\t// in\n    tag_178:\n        /* \"#utility.yul\":6836:6910   */\n      swap2\n      pop\n        /* \"#utility.yul\":6919:7012   */\n      tag_179\n        /* \"#utility.yul\":7008:7011   */\n      dup3\n        /* \"#utility.yul\":6919:7012   */\n      tag_77\n      jump\t// in\n    tag_179:\n        /* \"#utility.yul\":7037:7039   */\n      0x20\n        /* \"#utility.yul\":7032:7035   */\n      dup3\n        /* \"#utility.yul\":7028:7040   */\n      add\n        /* \"#utility.yul\":7021:7040   */\n      swap1\n      pop\n        /* \"#utility.yul\":6680:7046   */\n      swap2\n      swap1\n      pop\n      jump\t// out\n        /* \"#utility.yul\":7052:7471   */\n    tag_28:\n        /* \"#utility.yul\":7218:7222   */\n      0x00\n        /* \"#utility.yul\":7256:7258   */\n      0x20\n        /* \"#utility.yul\":7245:7254   */\n      dup3\n        /* \"#utility.yul\":7241:7259   */\n      add\n        /* \"#utility.yul\":7233:7259   */\n      swap1\n      pop\n        /* \"#utility.yul\":7305:7314   */\n      dup2\n        /* \"#utility.yul\":7299:7303   */\n      dup2\n        /* \"#utility.yul\":7295:7315   */\n      sub\n        /* \"#utility.yul\":7291:7292   */\n      0x00\n        /* \"#utility.yul\":7280:7289   */\n      dup4\n        /* \"#utility.yul\":7276:7293   */\n      add\n        /* \"#utility.yul\":7269:7316   */\n      mstore\n        /* \"#utility.yul\":7333:7464   */\n      tag_181\n        /* \"#utility.yul\":7459:7463   */\n      dup2\n        /* \"#utility.yul\":7333:7464   */\n      tag_78\n      jump\t// in\n    tag_181:\n        /* \"#utility.yul\":7325:7464   */\n      swap1\n      pop\n        /* \"#utility.yul\":7052:7471   */\n      swap2\n      swap1\n      pop\n      jump\t// out\n        /* \"#utility.yul\":7477:7657   */\n    tag_79:\n        /* \"#utility.yul\":7525:7602   */\n      0x4e487b7100000000000000000000000000000000000000000000000000000000\n        /* \"#utility.yul\":7522:7523   */\n      0x00\n        /* \"#utility.yul\":7515:7603   */\n      mstore\n        /* \"#utility.yul\":7622:7626   */\n      0x22\n        /* \"#utility.yul\":7619:7620   */\n      0x04\n        /* \"#utility.yul\":7612:7627   */\n      mstore\n        /* \"#utility.yul\":7646:7650   */\n      0x24\n        /* \"#utility.yul\":7643:7644   */\n      0x00\n        /* \"#utility.yul\":7636:7651   */\n      revert\n        /* \"#utility.yul\":7663:7983   */\n    tag_42:\n        /* \"#utility.yul\":7707:7713   */\n      0x00\n        /* \"#utility.yul\":7744:7745   */\n      0x02\n        /* \"#utility.yul\":7738:7742   */\n      dup3\n        /* \"#utility.yul\":7734:7746   */\n      div\n        /* \"#utility.yul\":7724:7746   */\n      swap1\n      pop\n        /* \"#utility.yul\":7791:7792   */\n      0x01\n        /* \"#utility.yul\":7785:7789   */\n      dup3\n        /* \"#utility.yul\":7781:7793   */\n      and\n        /* \"#utility.yul\":7812:7830   */\n      dup1\n        /* \"#utility.yul\":7802:7883   */\n      tag_184\n      jumpi\n        /* \"#utility.yul\":7868:7872   */\n      0x7f\n        /* \"#utility.yul\":7860:7866   */\n      dup3\n        /* \"#utility.yul\":7856:7873   */\n      and\n        /* \"#utility.yul\":7846:7873   */\n      swap2\n      pop\n        /* \"#utility.yul\":7802:7883   */\n    tag_184:\n        /* \"#utility.yul\":7930:7932   */\n      0x20\n        /* \"#utility.yul\":7922:7928   */\n      dup3\n        /* \"#utility.yul\":7919:7933   */\n      lt\n        /* \"#utility.yul\":7899:7917   */\n      dup2\n        /* \"#utility.yul\":7896:7934   */\n      sub\n        /* \"#utility.yul\":7893:7977   */\n      tag_185\n      jumpi\n        /* \"#utility.yul\":7949:7967   */\n      tag_186\n      tag_79\n      jump\t// in\n    tag_186:\n        /* \"#utility.yul\":7893:7977   */\n    tag_185:\n        /* \"#utility.yul\":7714:7983   */\n      pop\n        /* \"#utility.yul\":7663:7983   */\n      swap2\n      swap1\n      pop\n      jump\t// out\n        /* \"#utility.yul\":7989:8130   */\n    tag_80:\n        /* \"#utility.yul\":8038:8042   */\n      0x00\n        /* \"#utility.yul\":8061:8064   */\n      dup2\n        /* \"#utility.yul\":8053:8064   */\n      swap1\n      pop\n        /* \"#utility.yul\":8084:8087   */\n      dup2\n        /* \"#utility.yul\":8081:8082   */\n      0x00\n        /* \"#utility.yul\":8074:8088   */\n      mstore\n        /* \"#utility.yul\":8118:8122   */\n      0x20\n        /* \"#utility.yul\":8115:8116   */\n      0x00\n        /* \"#utility.yul\":8105:8123   */\n      keccak256\n        /* \"#utility.yul\":8097:8123   */\n      swap1\n      pop\n        /* \"#utility.yul\":7989:8130   */\n      swap2\n      swap1\n      pop\n      jump\t// out\n        /* \"#utility.yul\":8136:8229   */\n    tag_81:\n        /* \"#utility.yul\":8173:8179   */\n      0x00\n        /* \"#utility.yul\":8220:8222   */\n      0x20\n        /* \"#utility.yul\":8215:8217   */\n      0x1f\n        /* \"#utility.yul\":8208:8213   */\n      dup4\n        /* \"#utility.yul\":8204:8218   */\n      add\n        /* \"#utility.yul\":8200:8223   */\n      div\n        /* \"#utility.yul\":8190:8223   */\n      swap1\n      pop\n        /* \"#utility.yul\":8136:8229   */\n      swap2\n      swap1\n      pop\n      jump\t// out\n        /* \"#utility.yul\":8235:8342   */\n    tag_82:\n        /* \"#utility.yul\":8279:8287   */\n      0x00\n        /* \"#utility.yul\":8329:8334   */\n      dup3\n        /* \"#utility.yul\":8323:8327   */\n      dup3\n        /* \"#utility.yul\":8319:8335   */\n      shl\n        /* \"#utility.yul\":8298:8335   */\n      swap1\n      pop\n        /* \"#utility.yul\":8235:8342   */\n      swap3\n      swap2\n      pop\n      pop\n      jump\t// out\n        /* \"#utility.yul\":8348:8741   */\n    tag_83:\n        /* \"#utility.yul\":8417:8423   */\n      0x00\n        /* \"#utility.yul\":8467:8468   */\n      0x08\n        /* \"#utility.yul\":8455:8465   */\n      dup4\n        /* \"#utility.yul\":8451:8469   */\n      mul\n        /* \"#utility.yul\":8490:8587   */\n      tag_191\n        /* \"#utility.yul\":8520:8586   */\n      0xffffffffffffffffffffffffffffffffffffffffffffffffffffffffffffffff\n        /* \"#utility.yul\":8509:8518   */\n      dup3\n        /* \"#utility.yul\":8490:8587   */\n      tag_82\n      jump\t// in\n    tag_191:\n        /* \"#utility.yul\":8608:8647   */\n      tag_192\n        /* \"#utility.yul\":8638:8646   */\n      dup7\n        /* \"#utility.yul\":8627:8636   */\n      dup4\n        /* \"#utility.yul\":8608:8647   */\n      tag_82\n      jump\t// in\n    tag_192:\n        /* \"#utility.yul\":8596:8647   */\n      swap6\n      pop\n        /* \"#utility.yul\":8680:8684   */\n      dup1\n        /* \"#utility.yul\":8676:8685   */\n      not\n        /* \"#utility.yul\":8669:8674   */\n      dup5\n        /* \"#utility.yul\":8665:8686   */\n      and\n        /* \"#utility.yul\":8656:8686   */\n      swap4\n      pop\n        /* \"#utility.yul\":8729:8733   */\n      dup1\n        /* \"#utility.yul\":8719:8727   */\n      dup7\n        /* \"#utility.yul\":8715:8734   */\n      and\n        /* \"#utility.yul\":8708:8713   */\n      dup5\n        /* \"#utility.yul\":8705:8735   */\n      or\n        /* \"#utility.yul\":8695:8735   */\n      swap3\n      pop\n        /* \"#utility.yul\":8424:8741   */\n      pop\n      pop\n        /* \"#utility.yul\":8348:8741   */\n      swap4\n      swap3\n      pop\n      pop\n      pop\n      jump\t// out\n        /* \"#utility.yul\":8747:8807   */\n    tag_84:\n        /* \"#utility.yul\":8775:8778   */\n      0x00\n        /* \"#utility.yul\":8796:8801   */\n      dup2\n        /* \"#utility.yul\":8789:8801   */\n      swap1\n      pop\n        /* \"#utility.yul\":8747:8807   */\n      swap2\n      swap1\n      pop\n      jump\t// out\n        /* \"#utility.yul\":8813:8955   */\n    tag_85:\n        /* \"#utility.yul\":8863:8872   */\n      0x00\n        /* \"#utility.yul\":8896:8949   */\n      tag_195\n        /* \"#utility.yul\":8914:8948   */\n      tag_196\n        /* \"#utility.yul\":8923:8947   */\n      tag_197\n        /* \"#utility.yul\":8941:8946   */\n      dup5\n        /* \"#utility.yul\":8923:8947   */\n      tag_63\n      jump\t// in\n    tag_197:\n        /* \"#utility.yul\":8914:8948   */\n      tag_84\n      jump\t// in\n    tag_196:\n        /* \"#utility.yul\":8896:8949   */\n      tag_63\n      jump\t// in\n    tag_195:\n        /* \"#utility.yul\":8883:8949   */\n      swap1\n      pop\n        /* \"#utility.yul\":8813:8955   */\n      swap2\n      swap1\n      pop\n      jump\t// out\n        /* \"#utility.yul\":8961:9036   */\n    tag_86:\n        /* \"#utility.yul\":9004:9007   */\n      0x00\n        /* \"#utility.yul\":9025:9030   */\n      dup2\n        /* \"#utility.yul\":9018:9030   */\n      swap1\n      pop\n        /* \"#utility.yul\":8961:9036   */\n      swap2\n      swap1\n      pop\n      jump\t// out\n        /* \"#utility.yul\":9042:9311   */\n    tag_87:\n        /* \"#utility.yul\":9152:9191   */\n      tag_200\n        /* \"#utility.yul\":9183:9190   */\n      dup4\n        /* \"#utility.yul\":9152:9191   */\n      tag_85\n      jump\t// in\n    tag_200:\n        /* \"#utility.yul\":9213:9304   */\n      tag_201\n        /* \"#utility.yul\":9262:9303   */\n      tag_202\n        /* \"#utility.yul\":9286:9302   */\n      dup3\n        /* \"#utility.yul\":9262:9303   */\n      tag_86\n      jump\t// in\n    tag_202:\n        /* \"#utility.yul\":9254:9260   */\n      dup5\n        /* \"#utility.yul\":9247:9251   */\n      dup5\n        /* \"#utility.yul\":9241:9252   */\n      sload\n        /* \"#utility.yul\":9213:9304   */\n      tag_83\n      jump\t// in\n    tag_201:\n        /* \"#utility.yul\":9207:9211   */\n      dup3\n        /* \"#utility.yul\":9200:9305   */\n      sstore\n        /* \"#utility.yul\":9118:9311   */\n      pop\n        /* \"#utility.yul\":9042:9311   */\n      pop\n      pop\n      pop\n      jump\t// out\n        /* \"#utility.yul\":9317:9390   */\n    tag_88:\n        /* \"#utility.yul\":9362:9365   */\n      0x00\n        /* \"#utility.yul\":9317:9390   */\n      swap1\n      jump\t// out\n        /* \"#utility.yul\":9396:9585   */\n    tag_89:\n        /* \"#utility.yul\":9473:9505   */\n      tag_205\n      tag_88\n      jump\t// in\n    tag_205:\n        /* \"#utility.yul\":9514:9579   */\n      tag_206\n        /* \"#utility.yul\":9572:9578   */\n      dup2\n        /* \"#utility.yul\":9564:9570   */\n      dup5\n        /* \"#utility.yul\":9558:9562   */\n      dup5\n        /* \"#utility.yul\":9514:9579   */\n      tag_87\n      jump\t// in\n    tag_206:\n        /* \"#utility.yul\":9449:9585   */\n      pop\n        /* \"#utility.yul\":9396:9585   */\n      pop\n      pop\n      jump\t// out\n        /* \"#utility.yul\":9591:9777   */\n    tag_90:\n        /* \"#utility.yul\":9651:9771   */\n    tag_208:\n        /* \"#utility.yul\":9668:9671   */\n      dup2\n        /* \"#utility.yul\":9661:9666   */\n      dup2\n        /* \"#utility.yul\":9658:9672   */\n      lt\n        /* \"#utility.yul\":9651:9771   */\n      iszero\n      tag_210\n      jumpi\n        /* \"#utility.yul\":9722:9761   */\n      tag_211\n        /* \"#utility.yul\":9759:9760   */\n      0x00\n        /* \"#utility.yul\":9752:9757   */\n      dup3\n        /* \"#utility.yul\":9722:9761   */\n      tag_89\n      jump\t// in\n    tag_211:\n        /* \"#utility.yul\":9695:9696   */\n      0x01\n        /* \"#utility.yul\":9688:9693   */\n      dup2\n        /* \"#utility.yul\":9684:9697   */\n      add\n        /* \"#utility.yul\":9675:9697   */\n      swap1\n      pop\n        /* \"#utility.yul\":9651:9771   */\n      jump(tag_208)\n    tag_210:\n        /* \"#utility.yul\":9591:9777   */\n      pop\n      pop\n      jump\t// out\n        /* \"#utility.yul\":9783:10326   */\n    tag_91:\n        /* \"#utility.yul\":9884:9886   */\n      0x1f\n        /* \"#utility.yul\":9879:9882   */\n      dup3\n        /* \"#utility.yul\":9876:9887   */\n      gt\n        /* \"#utility.yul\":9873:10319   */\n      iszero\n      tag_213\n      jumpi\n        /* \"#utility.yul\":9918:9956   */\n      tag_214\n        /* \"#utility.yul\":9950:9955   */\n      dup2\n        /* \"#utility.yul\":9918:9956   */\n      tag_80\n      jump\t// in\n    tag_214:\n        /* \"#utility.yul\":10002:10031   */\n      tag_215\n        /* \"#utility.yul\":10020:10030   */\n      dup5\n        /* \"#utility.yul\":10002:10031   */\n      tag_81\n      jump\t// in\n    tag_215:\n        /* \"#utility.yul\":9992:10000   */\n      dup2\n        /* \"#utility.yul\":9988:10032   */\n      add\n        /* \"#utility.yul\":10185:10187   */\n      0x20\n        /* \"#utility.yul\":10173:10183   */\n      dup6\n        /* \"#utility.yul\":10170:10188   */\n      lt\n        /* \"#utility.yul\":10167:10216   */\n      iszero\n      tag_216\n      jumpi\n        /* \"#utility.yul\":10206:10214   */\n      dup2\n        /* \"#utility.yul\":10191:10214   */\n      swap1\n      pop\n        /* \"#utility.yul\":10167:10216   */\n    tag_216:\n        /* \"#utility.yul\":10229:10309   */\n      tag_217\n        /* \"#utility.yul\":10285:10307   */\n      tag_218\n        /* \"#utility.yul\":10303:10306   */\n      dup6\n        /* \"#utility.yul\":10285:10307   */\n      tag_81\n      jump\t// in\n    tag_218:\n        /* \"#utility.yul\":10275:10283   */\n      dup4\n        /* \"#utility.yul\":10271:10308   */\n      add\n        /* \"#utility.yul\":10258:10269   */\n      dup3\n        /* \"#utility.yul\":10229:10309   */\n      tag_90\n      jump\t// in\n    tag_217:\n        /* \"#utility.yul\":9888:10319   */\n      pop\n      pop\n        /* \"#utility.yul\":9873:10319   */\n    tag_213:\n        /* \"#utility.yul\":9783:10326   */\n      pop\n      pop\n      pop\n      jump\t// out\n        /* \"#utility.yul\":10332:10449   */\n    tag_92:\n        /* \"#utility.yul\":10386:10394   */\n      0x00\n        /* \"#utility.yul\":10436:10441   */\n      dup3\n        /* \"#utility.yul\":10430:10434   */\n      dup3\n        /* \"#utility.yul\":10426:10442   */\n      shr\n        /* \"#utility.yul\":10405:10442   */\n      swap1\n      pop\n        /* \"#utility.yul\":10332:10449   */\n      swap3\n      swap2\n      pop\n      pop\n      jump\t// out\n        /* \"#utility.yul\":10455:10624   */\n    tag_93:\n        /* \"#utility.yul\":10499:10505   */\n      0x00\n        /* \"#utility.yul\":10532:10583   */\n      tag_221\n        /* \"#utility.yul\":10580:10581   */\n      0x00\n        /* \"#utility.yul\":10576:10582   */\n      not\n        /* \"#utility.yul\":10568:10573   */\n      dup5\n        /* \"#utility.yul\":10565:10566   */\n      0x08\n        /* \"#utility.yul\":10561:10574   */\n      mul\n        /* \"#utility.yul\":10532:10583   */\n      tag_92\n      jump\t// in\n    tag_221:\n        /* \"#utility.yul\":10528:10584   */\n      not\n        /* \"#utility.yul\":10613:10617   */\n      dup1\n        /* \"#utility.yul\":10607:10611   */\n      dup4\n        /* \"#utility.yul\":10603:10618   */\n      and\n        /* \"#utility.yul\":10593:10618   */\n      swap2\n      pop\n        /* \"#utility.yul\":10506:10624   */\n      pop\n        /* \"#utility.yul\":10455:10624   */\n      swap3\n      swap2\n      pop\n      pop\n      jump\t// out\n        /* \"#utility.yul\":10629:10924   */\n    tag_94:\n        /* \"#utility.yul\":10705:10709   */\n      0x00\n        /* \"#utility.yul\":10851:10880   */\n      tag_223\n        /* \"#utility.yul\":10876:10879   */\n      dup4\n        /* \"#utility.yul\":10870:10874   */\n      dup4\n        /* \"#utility.yul\":10851:10880   */\n      tag_93\n      jump\t// in\n    tag_223:\n        /* \"#utility.yul\":10843:10880   */\n      swap2\n      pop\n        /* \"#utility.yul\":10913:10916   */\n      dup3\n        /* \"#utility.yul\":10910:10911   */\n      0x02\n        /* \"#utility.yul\":10906:10917   */\n      mul\n        /* \"#utility.yul\":10900:10904   */\n      dup3\n        /* \"#utility.yul\":10897:10918   */\n      or\n        /* \"#utility.yul\":10889:10918   */\n      swap1\n      pop\n        /* \"#utility.yul\":10629:10924   */\n      swap3\n      swap2\n      pop\n      pop\n      jump\t// out\n        /* \"#utility.yul\":10929:12324   */\n    tag_30:\n        /* \"#utility.yul\":11046:11083   */\n      tag_225\n        /* \"#utility.yul\":11079:11082   */\n      dup3\n        /* \"#utility.yul\":11046:11083   */\n      tag_70\n      jump\t// in\n    tag_225:\n        /* \"#utility.yul\":11148:11166   */\n      0xffffffffffffffff\n        /* \"#utility.yul\":11140:11146   */\n      dup2\n        /* \"#utility.yul\":11137:11167   */\n      gt\n        /* \"#utility.yul\":11134:11190   */\n      iszero\n      tag_226\n      jumpi\n        /* \"#utility.yul\":11170:11188   */\n      tag_227\n      tag_56\n      jump\t// in\n    tag_227:\n        /* \"#utility.yul\":11134:11190   */\n    tag_226:\n        /* \"#utility.yul\":11214:11252   */\n      tag_228\n        /* \"#utility.yul\":11246:11250   */\n      dup3\n        /* \"#utility.yul\":11240:11251   */\n      sload\n        /* \"#utility.yul\":11214:11252   */\n      tag_42\n      jump\t// in\n    tag_228:\n        /* \"#utility.yul\":11299:11366   */\n      tag_229\n        /* \"#utility.yul\":11359:11365   */\n      dup3\n        /* \"#utility.yul\":11351:11357   */\n      dup3\n        /* \"#utility.yul\":11345:11349   */\n      dup6\n        /* \"#utility.yul\":11299:11366   */\n      tag_91\n      jump\t// in\n    tag_229:\n        /* \"#utility.yul\":11393:11394   */\n      0x00\n        /* \"#utility.yul\":11417:11421   */\n      0x20\n        /* \"#utility.yul\":11404:11421   */\n      swap1\n      pop\n        /* \"#utility.yul\":11449:11451   */\n      0x1f\n        /* \"#utility.yul\":11441:11447   */\n      dup4\n        /* \"#utility.yul\":11438:11452   */\n      gt\n        /* \"#utility.yul\":11466:11467   */\n      0x01\n        /* \"#utility.yul\":11461:12079   */\n      dup2\n      eq\n      tag_231\n      jumpi\n        /* \"#utility.yul\":12123:12124   */\n      0x00\n        /* \"#utility.yul\":12140:12146   */\n      dup5\n        /* \"#utility.yul\":12137:12214   */\n      iszero\n      tag_232\n      jumpi\n        /* \"#utility.yul\":12189:12198   */\n      dup3\n        /* \"#utility.yul\":12184:12187   */\n      dup8\n        /* \"#utility.yul\":12180:12199   */\n      add\n        /* \"#utility.yul\":12174:12200   */\n      mload\n        /* \"#utility.yul\":12165:12200   */\n      swap1\n      pop\n        /* \"#utility.yul\":12137:12214   */\n    tag_232:\n        /* \"#utility.yul\":12240:12307   */\n      tag_233\n        /* \"#utility.yul\":12300:12306   */\n      dup6\n        /* \"#utility.yul\":12293:12298   */\n      dup3\n        /* \"#utility.yul\":12240:12307   */\n      tag_94\n      jump\t// in\n    tag_233:\n        /* \"#utility.yul\":12234:12238   */\n      dup7\n        /* \"#utility.yul\":12227:12308   */\n      sstore\n        /* \"#utility.yul\":12096:12318   */\n      pop\n        /* \"#utility.yul\":11431:12318   */\n      jump(tag_230)\n        /* \"#utility.yul\":11461:12079   */\n    tag_231:\n        /* \"#utility.yul\":11513:11517   */\n      0x1f\n        /* \"#utility.yul\":11509:11518   */\n      not\n        /* \"#utility.yul\":11501:11507   */\n      dup5\n        /* \"#utility.yul\":11497:11519   */\n      and\n        /* \"#utility.yul\":11547:11584   */\n      tag_234\n        /* \"#utility.yul\":11579:11583   */\n      dup7\n        /* \"#utility.yul\":11547:11584   */\n      tag_80\n      jump\t// in\n    tag_234:\n        /* \"#utility.yul\":11606:11607   */\n      0x00\n        /* \"#utility.yul\":11620:11828   */\n    tag_235:\n        /* \"#utility.yul\":11634:11641   */\n      dup3\n        /* \"#utility.yul\":11631:11632   */\n      dup2\n        /* \"#utility.yul\":11628:11642   */\n      lt\n        /* \"#utility.yul\":11620:11828   */\n      iszero\n      tag_237\n      jumpi\n        /* \"#utility.yul\":11713:11722   */\n      dup5\n        /* \"#utility.yul\":11708:11711   */\n      dup10\n        /* \"#utility.yul\":11704:11723   */\n      add\n        /* \"#utility.yul\":11698:11724   */\n      mload\n        /* \"#utility.yul\":11690:11696   */\n      dup3\n        /* \"#utility.yul\":11683:11725   */\n      sstore\n        /* \"#utility.yul\":11764:11765   */\n      0x01\n        /* \"#utility.yul\":11756:11762   */\n      dup3\n        /* \"#utility.yul\":11752:11766   */\n      add\n        /* \"#utility.yul\":11742:11766   */\n      swap2\n      pop\n        /* \"#utility.yul\":11811:11813   */\n      0x20\n        /* \"#utility.yul\":11800:11809   */\n      dup6\n        /* \"#utility.yul\":11796:11814   */\n      add\n        /* \"#utility.yul\":11783:11814   */\n      swap5\n      pop\n        /* \"#utility.yul\":11657:11661   */\n      0x20\n        /* \"#utility.yul\":11654:11655   */\n      dup2\n        /* \"#utility.yul\":11650:11662   */\n      add\n        /* \"#utility.yul\":11645:11662   */\n      swap1\n      pop\n        /* \"#utility.yul\":11620:11828   */\n      jump(tag_235)\n    tag_237:\n        /* \"#utility.yul\":11856:11862   */\n      dup7\n        /* \"#utility.yul\":11847:11854   */\n      dup4\n        /* \"#utility.yul\":11844:11863   */\n      lt\n        /* \"#utility.yul\":11841:12020   */\n      iszero\n      tag_238\n      jumpi\n        /* \"#utility.yul\":11914:11923   */\n      dup5\n        /* \"#utility.yul\":11909:11912   */\n      dup10\n        /* \"#utility.yul\":11905:11924   */\n      add\n        /* \"#utility.yul\":11899:11925   */\n      mload\n        /* \"#utility.yul\":11957:12005   */\n      tag_239\n        /* \"#utility.yul\":11999:12003   */\n      0x1f\n        /* \"#utility.yul\":11991:11997   */\n      dup10\n        /* \"#utility.yul\":11987:12004   */\n      and\n        /* \"#utility.yul\":11976:11985   */\n      dup3\n        /* \"#utility.yul\":11957:12005   */\n      tag_93\n      jump\t// in\n    tag_239:\n        /* \"#utility.yul\":11949:11955   */\n      dup4\n        /* \"#utility.yul\":11942:12006   */\n      sstore\n        /* \"#utility.yul\":11864:12020   */\n      pop\n        /* \"#utility.yul\":11841:12020   */\n    tag_238:\n        /* \"#utility.yul\":12066:12067   */\n      0x01\n        /* \"#utility.yul\":12062:12063   */\n      0x02\n        /* \"#utility.yul\":12054:12060   */\n      dup9\n        /* \"#utility.yul\":12050:12064   */\n      mul\n        /* \"#utility.yul\":12046:12068   */\n      add\n        /* \"#utility.yul\":12040:12044   */\n      dup9\n        /* \"#utility.yul\":12033:12069   */\n      sstore\n        /* \"#utility.yul\":11468:12079   */\n      pop\n      pop\n      pop\n        /* \"#utility.yul\":11431:12318   */\n    tag_230:\n      pop\n        /* \"#utility.yul\":11021:12324   */\n      pop\n      pop\n      pop\n        /* \"#utility.yul\":10929:12324   */\n      pop\n      pop\n      jump\t// out\n        /* \"#utility.yul\":12330:12448   */\n    tag_95:\n        /* \"#utility.yul\":12417:12441   */\n      tag_241\n        /* \"#utility.yul\":12435:12440   */\n      dup2\n        /* \"#utility.yul\":12417:12441   */\n      tag_67\n      jump\t// in\n    tag_241:\n        /* \"#utility.yul\":12412:12415   */\n      dup3\n        /* \"#utility.yul\":12405:12442   */\n      mstore\n        /* \"#utility.yul\":12330:12448   */\n      pop\n      pop\n      jump\t// out\n        /* \"#utility.yul\":12454:12877   */\n    tag_32:\n        /* \"#utility.yul\":12595:12599   */\n      0x00\n        /* \"#utility.yul\":12633:12635   */\n      0x40\n        /* \"#utility.yul\":12622:12631   */\n      dup3\n        /* \"#utility.yul\":12618:12636   */\n      add\n        /* \"#utility.yul\":12610:12636   */\n      swap1\n      pop\n        /* \"#utility.yul\":12646:12717   */\n      tag_243\n        /* \"#utility.yul\":12714:12715   */\n      0x00\n        /* \"#utility.yul\":12703:12712   */\n      dup4\n        /* \"#utility.yul\":12699:12716   */\n      add\n        /* \"#utility.yul\":12690:12696   */\n      dup6\n        /* \"#utility.yul\":12646:12717   */\n      tag_95\n      jump\t// in\n    tag_243:\n        /* \"#utility.yul\":12764:12773   */\n      dup2\n        /* \"#utility.yul\":12758:12762   */\n      dup2\n        /* \"#utility.yul\":12754:12774   */\n      sub\n        /* \"#utility.yul\":12749:12751   */\n      0x20\n        /* \"#utility.yul\":12738:12747   */\n      dup4\n        /* \"#utility.yul\":12734:12752   */\n      add\n        /* \"#utility.yul\":12727:12775   */\n      mstore\n        /* \"#utility.yul\":12792:12870   */\n      tag_244\n        /* \"#utility.yul\":12865:12869   */\n      dup2\n        /* \"#utility.yul\":12856:12862   */\n      dup5\n        /* \"#utility.yul\":12792:12870   */\n      tag_73\n      jump\t// in\n    tag_244:\n        /* \"#utility.yul\":12784:12870   */\n      swap1\n      pop\n        /* \"#utility.yul\":12454:12877   */\n      swap4\n      swap3\n      pop\n      pop\n      pop\n      jump\t// out\n        /* \"#utility.yul\":12883:13052   */\n    tag_96:\n        /* \"#utility.yul\":13023:13044   */\n      0x55736572206e6f74207265676973746572656400000000000000000000000000\n        /* \"#utility.yul\":13019:13020   */\n      0x00\n        /* \"#utility.yul\":13011:13017   */\n      dup3\n        /* \"#utility.yul\":13007:13021   */\n      add\n        /* \"#utility.yul\":13000:13045   */\n      mstore\n        /* \"#utility.yul\":12883:13052   */\n      pop\n      jump\t// out\n        /* \"#utility.yul\":13058:13424   */\n    tag_97:\n        /* \"#utility.yul\":13200:13203   */\n      0x00\n        /* \"#utility.yul\":13221:13288   */\n      tag_247\n        /* \"#utility.yul\":13285:13287   */\n      0x13\n        /* \"#utility.yul\":13280:13283   */\n      dup4\n        /* \"#utility.yul\":13221:13288   */\n      tag_71\n      jump\t// in\n    tag_247:\n        /* \"#utility.yul\":13214:13288   */\n      swap2\n      pop\n        /* \"#utility.yul\":13297:13390   */\n      tag_248\n        /* \"#utility.yul\":13386:13389   */\n      dup3\n        /* \"#utility.yul\":13297:13390   */\n      tag_96\n      jump\t// in\n    tag_248:\n        /* \"#utility.yul\":13415:13417   */\n      0x20\n        /* \"#utility.yul\":13410:13413   */\n      dup3\n        /* \"#utility.yul\":13406:13418   */\n      add\n        /* \"#utility.yul\":13399:13418   */\n      swap1\n      pop\n        /* \"#utility.yul\":13058:13424   */\n      swap2\n      swap1\n      pop\n      jump\t// out\n        /* \"#utility.yul\":13430:13849   */\n    tag_36:\n        /* \"#utility.yul\":13596:13600   */\n      0x00\n        /* \"#utility.yul\":13634:13636   */\n      0x20\n        /* \"#utility.yul\":13623:13632   */\n      dup3\n        /* \"#utility.yul\":13619:13637   */\n      add\n        /* \"#utility.yul\":13611:13637   */\n      swap1\n      pop\n        /* \"#utility.yul\":13683:13692   */\n      dup2\n        /* \"#utility.yul\":13677:13681   */\n      dup2\n        /* \"#utility.yul\":13673:13693   */\n      sub\n        /* \"#utility.yul\":13669:13670   */\n      0x00\n        /* \"#utility.yul\":13658:13667   */\n      dup4\n        /* \"#utility.yul\":13654:13671   */\n      add\n        /* \"#utility.yul\":13647:13694   */\n      mstore\n        /* \"#utility.yul\":13711:13842   */\n      tag_250\n        /* \"#utility.yul\":13837:13841   */\n      dup2\n        /* \"#utility.yul\":13711:13842   */\n      tag_97\n      jump\t// in\n    tag_250:\n        /* \"#utility.yul\":13703:13842   */\n      swap1\n      pop\n        /* \"#utility.yul\":13430:13849   */\n      swap2\n      swap1\n      pop\n      jump\t// out\n        /* \"#utility.yul\":13855:14035   */\n    tag_98:\n        /* \"#utility.yul\":13903:13980   */\n      0x4e487b7100000000000000000000000000000000000000000000000000000000\n        /* \"#utility.yul\":13900:13901   */\n      0x00\n        /* \"#utility.yul\":13893:13981   */\n      mstore\n        /* \"#utility.yul\":14000:14004   */\n      0x11\n        /* \"#utility.yul\":13997:13998   */\n      0x04\n        /* \"#utility.yul\":13990:14005   */\n      mstore\n        /* \"#utility.yul\":14024:14028   */\n      0x24\n        /* \"#utility.yul\":14021:14022   */\n      0x00\n        /* \"#utility.yul\":14014:14029   */\n      revert\n        /* \"#utility.yul\":14041:14232   */\n    tag_38:\n        /* \"#utility.yul\":14081:14084   */\n      0x00\n        /* \"#utility.yul\":14100:14120   */\n      tag_253\n        /* \"#utility.yul\":14118:14119   */\n      dup3\n        /* \"#utility.yul\":14100:14120   */\n      tag_63\n      jump\t// in\n    tag_253:\n        /* \"#utility.yul\":14095:14120   */\n      swap2\n      pop\n        /* \"#utility.yul\":14134:14154   */\n      tag_254\n        /* \"#utility.yul\":14152:14153   */\n      dup4\n        /* \"#utility.yul\":14134:14154   */\n      tag_63\n      jump\t// in\n    tag_254:\n        /* \"#utility.yul\":14129:14154   */\n      swap3\n      pop\n        /* \"#utility.yul\":14177:14178   */\n      dup3\n        /* \"#utility.yul\":14174:14175   */\n      dup3\n        /* \"#utility.yul\":14170:14179   */\n      add\n        /* \"#utility.yul\":14163:14179   */\n      swap1\n      pop\n        /* \"#utility.yul\":14198:14201   */\n      dup1\n        /* \"#utility.yul\":14195:14196   */\n      dup3\n        /* \"#utility.yul\":14192:14202   */\n      gt\n        /* \"#utility.yul\":14189:14225   */\n      iszero\n      tag_255\n      jumpi\n        /* \"#utility.yul\":14205:14223   */\n      tag_256\n      tag_98\n      jump\t// in\n    tag_256:\n        /* \"#utility.yul\":14189:14225   */\n    tag_255:\n        /* \"#utility.yul\":14041:14232   */\n      swap3\n      swap2\n      pop\n      pop\n      jump\t// out\n        /* \"#utility.yul\":14238:14570   */\n    tag_40:\n        /* \"#utility.yul\":14359:14363   */\n      0x00\n        /* \"#utility.yul\":14397:14399   */\n      0x40\n        /* \"#utility.yul\":14386:14395   */\n      dup3\n        /* \"#utility.yul\":14382:14400   */\n      add\n        /* \"#utility.yul\":14374:14400   */\n      swap1\n      pop\n        /* \"#utility.yul\":14410:14481   */\n      tag_258\n        /* \"#utility.yul\":14478:14479   */\n      0x00\n        /* \"#utility.yul\":14467:14476   */\n      dup4\n        /* \"#utility.yul\":14463:14480   */\n      add\n        /* \"#utility.yul\":14454:14460   */\n      dup6\n        /* \"#utility.yul\":14410:14481   */\n      tag_95\n      jump\t// in\n    tag_258:\n        /* \"#utility.yul\":14491:14563   */\n      tag_259\n        /* \"#utility.yul\":14559:14561   */\n      0x20\n        /* \"#utility.yul\":14548:14557   */\n      dup4\n        /* \"#utility.yul\":14544:14562   */\n      add\n        /* \"#utility.yul\":14535:14541   */\n      dup5\n        /* \"#utility.yul\":14491:14563   */\n      tag_76\n      jump\t// in\n    tag_259:\n        /* \"#utility.yul\":14238:14570   */\n      swap4\n      swap3\n      pop\n      pop\n      pop\n      jump\t// out\n\n    auxdata: 0xa2646970667358221220acabaa5b6b3bff44868e9c88bf1b51f324d5e1c5b4682ad5524697390fd4ddf464736f6c634300081a0033\n}\n",
				"bytecode": {
					"linkReferences": {},
					"object": "6080604052348015600e575f80fd5b50610cc48061001c5f395ff3fe608060405234801561000f575f80fd5b506004361061004a575f3560e01c8063704f1b941461004e57806386b7aa781461006a578063a87430ba14610086578063c4baff57146100b8575b5f80fd5b61006860048036038101906100639190610629565b6100d6565b005b610084600480360381019061007f91906106a3565b610238565b005b6100a0600480360381019061009b9190610728565b610354565b6040516100af939291906107dc565b60405180910390f35b6100c061040b565b6040516100cd9190610818565b60405180910390f35b5f803373ffffffffffffffffffffffffffffffffffffffff1673ffffffffffffffffffffffffffffffffffffffff1681526020019081526020015f206001015f9054906101000a900460ff1615610162576040517f08c379a00000000000000000000000000000000000000000000000000000000081526004016101599061087b565b60405180910390fd5b60405180606001604052808281526020016001151581526020015f8152505f803373ffffffffffffffffffffffffffffffffffffffff1673ffffffffffffffffffffffffffffffffffffffff1681526020019081526020015f205f820151815f0190816101cf9190610a93565b506020820151816001015f6101000a81548160ff021916908315150217905550604082015181600201559050507f48cac28ad4dc618e15f4c2dd5e97751182f166de97b25618318b2112aa951a2f338260405161022d929190610b71565b60405180910390a150565b5f803373ffffffffffffffffffffffffffffffffffffffff1673ffffffffffffffffffffffffffffffffffffffff1681526020019081526020015f206001015f9054906101000a900460ff166102c3576040517f08c379a00000000000000000000000000000000000000000000000000000000081526004016102ba90610be9565b60405180910390fd5b805f803373ffffffffffffffffffffffffffffffffffffffff1673ffffffffffffffffffffffffffffffffffffffff1681526020019081526020015f206002015f8282546103119190610c34565b925050819055507f0fe6fcb45adaaa54f7e3491f6a7964049817f1e437f33587e634a4629fbcf3a63382604051610349929190610c67565b60405180910390a150565b5f602052805f5260405f205f91509050805f018054610372906108c6565b80601f016020809104026020016040519081016040528092919081815260200182805461039e906108c6565b80156103e95780601f106103c0576101008083540402835291602001916103e9565b820191905f5260205f20905b8154815290600101906020018083116103cc57829003601f168201915b505050505090806001015f9054906101000a900460ff16908060020154905083565b5f805f3373ffffffffffffffffffffffffffffffffffffffff1673ffffffffffffffffffffffffffffffffffffffff1681526020019081526020015f206001015f9054906101000a900460ff16610497576040517f08c379a000000000000000000000000000000000000000000000000000000000815260040161048e90610be9565b60405180910390fd5b5f803373ffffffffffffffffffffffffffffffffffffffff1673ffffffffffffffffffffffffffffffffffffffff1681526020019081526020015f2060020154905090565b5f604051905090565b5f80fd5b5f80fd5b5f80fd5b5f80fd5b5f601f19601f8301169050919050565b7f4e487b71000000000000000000000000000000000000000000000000000000005f52604160045260245ffd5b61053b826104f5565b810181811067ffffffffffffffff8211171561055a57610559610505565b5b80604052505050565b5f61056c6104dc565b90506105788282610532565b919050565b5f67ffffffffffffffff82111561059757610596610505565b5b6105a0826104f5565b9050602081019050919050565b828183375f83830152505050565b5f6105cd6105c88461057d565b610563565b9050828152602081018484840111156105e9576105e86104f1565b5b6105f48482856105ad565b509392505050565b5f82601f8301126106105761060f6104ed565b5b81356106208482602086016105bb565b91505092915050565b5f6020828403121561063e5761063d6104e5565b5b5f82013567ffffffffffffffff81111561065b5761065a6104e9565b5b610667848285016105fc565b91505092915050565b5f819050919050565b61068281610670565b811461068c575f80fd5b50565b5f8135905061069d81610679565b92915050565b5f602082840312156106b8576106b76104e5565b5b5f6106c58482850161068f565b91505092915050565b5f73ffffffffffffffffffffffffffffffffffffffff82169050919050565b5f6106f7826106ce565b9050919050565b610707816106ed565b8114610711575f80fd5b50565b5f81359050610722816106fe565b92915050565b5f6020828403121561073d5761073c6104e5565b5b5f61074a84828501610714565b91505092915050565b5f81519050919050565b5f82825260208201905092915050565b8281835e5f83830152505050565b5f61078582610753565b61078f818561075d565b935061079f81856020860161076d565b6107a8816104f5565b840191505092915050565b5f8115159050919050565b6107c7816107b3565b82525050565b6107d681610670565b82525050565b5f6060820190508181035f8301526107f4818661077b565b905061080360208301856107be565b61081060408301846107cd565b949350505050565b5f60208201905061082b5f8301846107cd565b92915050565b7f5573657220616c726561647920726567697374657265640000000000000000005f82015250565b5f61086560178361075d565b915061087082610831565b602082019050919050565b5f6020820190508181035f83015261089281610859565b9050919050565b7f4e487b71000000000000000000000000000000000000000000000000000000005f52602260045260245ffd5b5f60028204905060018216806108dd57607f821691505b6020821081036108f0576108ef610899565b5b50919050565b5f819050815f5260205f209050919050565b5f6020601f8301049050919050565b5f82821b905092915050565b5f600883026109527fffffffffffffffffffffffffffffffffffffffffffffffffffffffffffffffff82610917565b61095c8683610917565b95508019841693508086168417925050509392505050565b5f819050919050565b5f61099761099261098d84610670565b610974565b610670565b9050919050565b5f819050919050565b6109b08361097d565b6109c46109bc8261099e565b848454610923565b825550505050565b5f90565b6109d86109cc565b6109e38184846109a7565b505050565b5b81811015610a06576109fb5f826109d0565b6001810190506109e9565b5050565b601f821115610a4b57610a1c816108f6565b610a2584610908565b81016020851015610a34578190505b610a48610a4085610908565b8301826109e8565b50505b505050565b5f82821c905092915050565b5f610a6b5f1984600802610a50565b1980831691505092915050565b5f610a838383610a5c565b9150826002028217905092915050565b610a9c82610753565b67ffffffffffffffff811115610ab557610ab4610505565b5b610abf82546108c6565b610aca828285610a0a565b5f60209050601f831160018114610afb575f8415610ae9578287015190505b610af38582610a78565b865550610b5a565b601f198416610b09866108f6565b5f5b82811015610b3057848901518255600182019150602085019450602081019050610b0b565b86831015610b4d5784890151610b49601f891682610a5c565b8355505b6001600288020188555050505b505050505050565b610b6b816106ed565b82525050565b5f604082019050610b845f830185610b62565b8181036020830152610b96818461077b565b90509392505050565b7f55736572206e6f742072656769737465726564000000000000000000000000005f82015250565b5f610bd360138361075d565b9150610bde82610b9f565b602082019050919050565b5f6020820190508181035f830152610c0081610bc7565b9050919050565b7f4e487b71000000000000000000000000000000000000000000000000000000005f52601160045260245ffd5b5f610c3e82610670565b9150610c4983610670565b9250828201905080821115610c6157610c60610c07565b5b92915050565b5f604082019050610c7a5f830185610b62565b610c8760208301846107cd565b939250505056fea2646970667358221220acabaa5b6b3bff44868e9c88bf1b51f324d5e1c5b4682ad5524697390fd4ddf464736f6c634300081a0033",
					"opcodes": "PUSH1 0x80 PUSH1 0x40 MSTORE CALLVALUE DUP1 ISZERO PUSH1 0xE JUMPI PUSH0 DUP1 REVERT JUMPDEST POP PUSH2 0xCC4 DUP1 PUSH2 0x1C PUSH0 CODECOPY PUSH0 RETURN INVALID PUSH1 0x80 PUSH1 0x40 MSTORE CALLVALUE DUP1 ISZERO PUSH2 0xF JUMPI PUSH0 DUP1 REVERT JUMPDEST POP PUSH1 0x4 CALLDATASIZE LT PUSH2 0x4A JUMPI PUSH0 CALLDATALOAD PUSH1 0xE0 SHR DUP1 PUSH4 0x704F1B94 EQ PUSH2 0x4E JUMPI DUP1 PUSH4 0x86B7AA78 EQ PUSH2 0x6A JUMPI DUP1 PUSH4 0xA87430BA EQ PUSH2 0x86 JUMPI DUP1 PUSH4 0xC4BAFF57 EQ PUSH2 0xB8 JUMPI JUMPDEST PUSH0 DUP1 REVERT JUMPDEST PUSH2 0x68 PUSH1 0x4 DUP1 CALLDATASIZE SUB DUP2 ADD SWAP1 PUSH2 0x63 SWAP2 SWAP1 PUSH2 0x629 JUMP JUMPDEST PUSH2 0xD6 JUMP JUMPDEST STOP JUMPDEST PUSH2 0x84 PUSH1 0x4 DUP1 CALLDATASIZE SUB DUP2 ADD SWAP1 PUSH2 0x7F SWAP2 SWAP1 PUSH2 0x6A3 JUMP JUMPDEST PUSH2 0x238 JUMP JUMPDEST STOP JUMPDEST PUSH2 0xA0 PUSH1 0x4 DUP1 CALLDATASIZE SUB DUP2 ADD SWAP1 PUSH2 0x9B SWAP2 SWAP1 PUSH2 0x728 JUMP JUMPDEST PUSH2 0x354 JUMP JUMPDEST PUSH1 0x40 MLOAD PUSH2 0xAF SWAP4 SWAP3 SWAP2 SWAP1 PUSH2 0x7DC JUMP JUMPDEST PUSH1 0x40 MLOAD DUP1 SWAP2 SUB SWAP1 RETURN JUMPDEST PUSH2 0xC0 PUSH2 0x40B JUMP JUMPDEST PUSH1 0x40 MLOAD PUSH2 0xCD SWAP2 SWAP1 PUSH2 0x818 JUMP JUMPDEST PUSH1 0x40 MLOAD DUP1 SWAP2 SUB SWAP1 RETURN JUMPDEST PUSH0 DUP1 CALLER PUSH20 0xFFFFFFFFFFFFFFFFFFFFFFFFFFFFFFFFFFFFFFFF AND PUSH20 0xFFFFFFFFFFFFFFFFFFFFFFFFFFFFFFFFFFFFFFFF AND DUP2 MSTORE PUSH1 0x20 ADD SWAP1 DUP2 MSTORE PUSH1 0x20 ADD PUSH0 KECCAK256 PUSH1 0x1 ADD PUSH0 SWAP1 SLOAD SWAP1 PUSH2 0x100 EXP SWAP1 DIV PUSH1 0xFF AND ISZERO PUSH2 0x162 JUMPI PUSH1 0x40 MLOAD PUSH32 0x8C379A000000000000000000000000000000000000000000000000000000000 DUP2 MSTORE PUSH1 0x4 ADD PUSH2 0x159 SWAP1 PUSH2 0x87B JUMP JUMPDEST PUSH1 0x40 MLOAD DUP1 SWAP2 SUB SWAP1 REVERT JUMPDEST PUSH1 0x40 MLOAD DUP1 PUSH1 0x60 ADD PUSH1 0x40 MSTORE DUP1 DUP3 DUP2 MSTORE PUSH1 0x20 ADD PUSH1 0x1 ISZERO ISZERO DUP2 MSTORE PUSH1 0x20 ADD PUSH0 DUP2 MSTORE POP PUSH0 DUP1 CALLER PUSH20 0xFFFFFFFFFFFFFFFFFFFFFFFFFFFFFFFFFFFFFFFF AND PUSH20 0xFFFFFFFFFFFFFFFFFFFFFFFFFFFFFFFFFFFFFFFF AND DUP2 MSTORE PUSH1 0x20 ADD SWAP1 DUP2 MSTORE PUSH1 0x20 ADD PUSH0 KECCAK256 PUSH0 DUP3 ADD MLOAD DUP2 PUSH0 ADD SWAP1 DUP2 PUSH2 0x1CF SWAP2 SWAP1 PUSH2 0xA93 JUMP JUMPDEST POP PUSH1 0x20 DUP3 ADD MLOAD DUP2 PUSH1 0x1 ADD PUSH0 PUSH2 0x100 EXP DUP2 SLOAD DUP2 PUSH1 0xFF MUL NOT AND SWAP1 DUP4 ISZERO ISZERO MUL OR SWAP1 SSTORE POP PUSH1 0x40 DUP3 ADD MLOAD DUP2 PUSH1 0x2 ADD SSTORE SWAP1 POP POP PUSH32 0x48CAC28AD4DC618E15F4C2DD5E97751182F166DE97B25618318B2112AA951A2F CALLER DUP3 PUSH1 0x40 MLOAD PUSH2 0x22D SWAP3 SWAP2 SWAP1 PUSH2 0xB71 JUMP JUMPDEST PUSH1 0x40 MLOAD DUP1 SWAP2 SUB SWAP1 LOG1 POP JUMP JUMPDEST PUSH0 DUP1 CALLER PUSH20 0xFFFFFFFFFFFFFFFFFFFFFFFFFFFFFFFFFFFFFFFF AND PUSH20 0xFFFFFFFFFFFFFFFFFFFFFFFFFFFFFFFFFFFFFFFF AND DUP2 MSTORE PUSH1 0x20 ADD SWAP1 DUP2 MSTORE PUSH1 0x20 ADD PUSH0 KECCAK256 PUSH1 0x1 ADD PUSH0 SWAP1 SLOAD SWAP1 PUSH2 0x100 EXP SWAP1 DIV PUSH1 0xFF AND PUSH2 0x2C3 JUMPI PUSH1 0x40 MLOAD PUSH32 0x8C379A000000000000000000000000000000000000000000000000000000000 DUP2 MSTORE PUSH1 0x4 ADD PUSH2 0x2BA SWAP1 PUSH2 0xBE9 JUMP JUMPDEST PUSH1 0x40 MLOAD DUP1 SWAP2 SUB SWAP1 REVERT JUMPDEST DUP1 PUSH0 DUP1 CALLER PUSH20 0xFFFFFFFFFFFFFFFFFFFFFFFFFFFFFFFFFFFFFFFF AND PUSH20 0xFFFFFFFFFFFFFFFFFFFFFFFFFFFFFFFFFFFFFFFF AND DUP2 MSTORE PUSH1 0x20 ADD SWAP1 DUP2 MSTORE PUSH1 0x20 ADD PUSH0 KECCAK256 PUSH1 0x2 ADD PUSH0 DUP3 DUP3 SLOAD PUSH2 0x311 SWAP2 SWAP1 PUSH2 0xC34 JUMP JUMPDEST SWAP3 POP POP DUP2 SWAP1 SSTORE POP PUSH32 0xFE6FCB45ADAAA54F7E3491F6A7964049817F1E437F33587E634A4629FBCF3A6 CALLER DUP3 PUSH1 0x40 MLOAD PUSH2 0x349 SWAP3 SWAP2 SWAP1 PUSH2 0xC67 JUMP JUMPDEST PUSH1 0x40 MLOAD DUP1 SWAP2 SUB SWAP1 LOG1 POP JUMP JUMPDEST PUSH0 PUSH1 0x20 MSTORE DUP1 PUSH0 MSTORE PUSH1 0x40 PUSH0 KECCAK256 PUSH0 SWAP2 POP SWAP1 POP DUP1 PUSH0 ADD DUP1 SLOAD PUSH2 0x372 SWAP1 PUSH2 0x8C6 JUMP JUMPDEST DUP1 PUSH1 0x1F ADD PUSH1 0x20 DUP1 SWAP2 DIV MUL PUSH1 0x20 ADD PUSH1 0x40 MLOAD SWAP1 DUP2 ADD PUSH1 0x40 MSTORE DUP1 SWAP3 SWAP2 SWAP1 DUP2 DUP2 MSTORE PUSH1 0x20 ADD DUP3 DUP1 SLOAD PUSH2 0x39E SWAP1 PUSH2 0x8C6 JUMP JUMPDEST DUP1 ISZERO PUSH2 0x3E9 JUMPI DUP1 PUSH1 0x1F LT PUSH2 0x3C0 JUMPI PUSH2 0x100 DUP1 DUP4 SLOAD DIV MUL DUP4 MSTORE SWAP2 PUSH1 0x20 ADD SWAP2 PUSH2 0x3E9 JUMP JUMPDEST DUP3 ADD SWAP2 SWAP1 PUSH0 MSTORE PUSH1 0x20 PUSH0 KECCAK256 SWAP1 JUMPDEST DUP2 SLOAD DUP2 MSTORE SWAP1 PUSH1 0x1 ADD SWAP1 PUSH1 0x20 ADD DUP1 DUP4 GT PUSH2 0x3CC JUMPI DUP3 SWAP1 SUB PUSH1 0x1F AND DUP3 ADD SWAP2 JUMPDEST POP POP POP POP POP SWAP1 DUP1 PUSH1 0x1 ADD PUSH0 SWAP1 SLOAD SWAP1 PUSH2 0x100 EXP SWAP1 DIV PUSH1 0xFF AND SWAP1 DUP1 PUSH1 0x2 ADD SLOAD SWAP1 POP DUP4 JUMP JUMPDEST PUSH0 DUP1 PUSH0 CALLER PUSH20 0xFFFFFFFFFFFFFFFFFFFFFFFFFFFFFFFFFFFFFFFF AND PUSH20 0xFFFFFFFFFFFFFFFFFFFFFFFFFFFFFFFFFFFFFFFF AND DUP2 MSTORE PUSH1 0x20 ADD SWAP1 DUP2 MSTORE PUSH1 0x20 ADD PUSH0 KECCAK256 PUSH1 0x1 ADD PUSH0 SWAP1 SLOAD SWAP1 PUSH2 0x100 EXP SWAP1 DIV PUSH1 0xFF AND PUSH2 0x497 JUMPI PUSH1 0x40 MLOAD PUSH32 0x8C379A000000000000000000000000000000000000000000000000000000000 DUP2 MSTORE PUSH1 0x4 ADD PUSH2 0x48E SWAP1 PUSH2 0xBE9 JUMP JUMPDEST PUSH1 0x40 MLOAD DUP1 SWAP2 SUB SWAP1 REVERT JUMPDEST PUSH0 DUP1 CALLER PUSH20 0xFFFFFFFFFFFFFFFFFFFFFFFFFFFFFFFFFFFFFFFF AND PUSH20 0xFFFFFFFFFFFFFFFFFFFFFFFFFFFFFFFFFFFFFFFF AND DUP2 MSTORE PUSH1 0x20 ADD SWAP1 DUP2 MSTORE PUSH1 0x20 ADD PUSH0 KECCAK256 PUSH1 0x2 ADD SLOAD SWAP1 POP SWAP1 JUMP JUMPDEST PUSH0 PUSH1 0x40 MLOAD SWAP1 POP SWAP1 JUMP JUMPDEST PUSH0 DUP1 REVERT JUMPDEST PUSH0 DUP1 REVERT JUMPDEST PUSH0 DUP1 REVERT JUMPDEST PUSH0 DUP1 REVERT JUMPDEST PUSH0 PUSH1 0x1F NOT PUSH1 0x1F DUP4 ADD AND SWAP1 POP SWAP2 SWAP1 POP JUMP JUMPDEST PUSH32 0x4E487B7100000000000000000000000000000000000000000000000000000000 PUSH0 MSTORE PUSH1 0x41 PUSH1 0x4 MSTORE PUSH1 0x24 PUSH0 REVERT JUMPDEST PUSH2 0x53B DUP3 PUSH2 0x4F5 JUMP JUMPDEST DUP2 ADD DUP2 DUP2 LT PUSH8 0xFFFFFFFFFFFFFFFF DUP3 GT OR ISZERO PUSH2 0x55A JUMPI PUSH2 0x559 PUSH2 0x505 JUMP JUMPDEST JUMPDEST DUP1 PUSH1 0x40 MSTORE POP POP POP JUMP JUMPDEST PUSH0 PUSH2 0x56C PUSH2 0x4DC JUMP JUMPDEST SWAP1 POP PUSH2 0x578 DUP3 DUP3 PUSH2 0x532 JUMP JUMPDEST SWAP2 SWAP1 POP JUMP JUMPDEST PUSH0 PUSH8 0xFFFFFFFFFFFFFFFF DUP3 GT ISZERO PUSH2 0x597 JUMPI PUSH2 0x596 PUSH2 0x505 JUMP JUMPDEST JUMPDEST PUSH2 0x5A0 DUP3 PUSH2 0x4F5 JUMP JUMPDEST SWAP1 POP PUSH1 0x20 DUP2 ADD SWAP1 POP SWAP2 SWAP1 POP JUMP JUMPDEST DUP3 DUP2 DUP4 CALLDATACOPY PUSH0 DUP4 DUP4 ADD MSTORE POP POP POP JUMP JUMPDEST PUSH0 PUSH2 0x5CD PUSH2 0x5C8 DUP5 PUSH2 0x57D JUMP JUMPDEST PUSH2 0x563 JUMP JUMPDEST SWAP1 POP DUP3 DUP2 MSTORE PUSH1 0x20 DUP2 ADD DUP5 DUP5 DUP5 ADD GT ISZERO PUSH2 0x5E9 JUMPI PUSH2 0x5E8 PUSH2 0x4F1 JUMP JUMPDEST JUMPDEST PUSH2 0x5F4 DUP5 DUP3 DUP6 PUSH2 0x5AD JUMP JUMPDEST POP SWAP4 SWAP3 POP POP POP JUMP JUMPDEST PUSH0 DUP3 PUSH1 0x1F DUP4 ADD SLT PUSH2 0x610 JUMPI PUSH2 0x60F PUSH2 0x4ED JUMP JUMPDEST JUMPDEST DUP2 CALLDATALOAD PUSH2 0x620 DUP5 DUP3 PUSH1 0x20 DUP7 ADD PUSH2 0x5BB JUMP JUMPDEST SWAP2 POP POP SWAP3 SWAP2 POP POP JUMP JUMPDEST PUSH0 PUSH1 0x20 DUP3 DUP5 SUB SLT ISZERO PUSH2 0x63E JUMPI PUSH2 0x63D PUSH2 0x4E5 JUMP JUMPDEST JUMPDEST PUSH0 DUP3 ADD CALLDATALOAD PUSH8 0xFFFFFFFFFFFFFFFF DUP2 GT ISZERO PUSH2 0x65B JUMPI PUSH2 0x65A PUSH2 0x4E9 JUMP JUMPDEST JUMPDEST PUSH2 0x667 DUP5 DUP3 DUP6 ADD PUSH2 0x5FC JUMP JUMPDEST SWAP2 POP POP SWAP3 SWAP2 POP POP JUMP JUMPDEST PUSH0 DUP2 SWAP1 POP SWAP2 SWAP1 POP JUMP JUMPDEST PUSH2 0x682 DUP2 PUSH2 0x670 JUMP JUMPDEST DUP2 EQ PUSH2 0x68C JUMPI PUSH0 DUP1 REVERT JUMPDEST POP JUMP JUMPDEST PUSH0 DUP2 CALLDATALOAD SWAP1 POP PUSH2 0x69D DUP2 PUSH2 0x679 JUMP JUMPDEST SWAP3 SWAP2 POP POP JUMP JUMPDEST PUSH0 PUSH1 0x20 DUP3 DUP5 SUB SLT ISZERO PUSH2 0x6B8 JUMPI PUSH2 0x6B7 PUSH2 0x4E5 JUMP JUMPDEST JUMPDEST PUSH0 PUSH2 0x6C5 DUP5 DUP3 DUP6 ADD PUSH2 0x68F JUMP JUMPDEST SWAP2 POP POP SWAP3 SWAP2 POP POP JUMP JUMPDEST PUSH0 PUSH20 0xFFFFFFFFFFFFFFFFFFFFFFFFFFFFFFFFFFFFFFFF DUP3 AND SWAP1 POP SWAP2 SWAP1 POP JUMP JUMPDEST PUSH0 PUSH2 0x6F7 DUP3 PUSH2 0x6CE JUMP JUMPDEST SWAP1 POP SWAP2 SWAP1 POP JUMP JUMPDEST PUSH2 0x707 DUP2 PUSH2 0x6ED JUMP JUMPDEST DUP2 EQ PUSH2 0x711 JUMPI PUSH0 DUP1 REVERT JUMPDEST POP JUMP JUMPDEST PUSH0 DUP2 CALLDATALOAD SWAP1 POP PUSH2 0x722 DUP2 PUSH2 0x6FE JUMP JUMPDEST SWAP3 SWAP2 POP POP JUMP JUMPDEST PUSH0 PUSH1 0x20 DUP3 DUP5 SUB SLT ISZERO PUSH2 0x73D JUMPI PUSH2 0x73C PUSH2 0x4E5 JUMP JUMPDEST JUMPDEST PUSH0 PUSH2 0x74A DUP5 DUP3 DUP6 ADD PUSH2 0x714 JUMP JUMPDEST SWAP2 POP POP SWAP3 SWAP2 POP POP JUMP JUMPDEST PUSH0 DUP2 MLOAD SWAP1 POP SWAP2 SWAP1 POP JUMP JUMPDEST PUSH0 DUP3 DUP3 MSTORE PUSH1 0x20 DUP3 ADD SWAP1 POP SWAP3 SWAP2 POP POP JUMP JUMPDEST DUP3 DUP2 DUP4 MCOPY PUSH0 DUP4 DUP4 ADD MSTORE POP POP POP JUMP JUMPDEST PUSH0 PUSH2 0x785 DUP3 PUSH2 0x753 JUMP JUMPDEST PUSH2 0x78F DUP2 DUP6 PUSH2 0x75D JUMP JUMPDEST SWAP4 POP PUSH2 0x79F DUP2 DUP6 PUSH1 0x20 DUP7 ADD PUSH2 0x76D JUMP JUMPDEST PUSH2 0x7A8 DUP2 PUSH2 0x4F5 JUMP JUMPDEST DUP5 ADD SWAP2 POP POP SWAP3 SWAP2 POP POP JUMP JUMPDEST PUSH0 DUP2 ISZERO ISZERO SWAP1 POP SWAP2 SWAP1 POP JUMP JUMPDEST PUSH2 0x7C7 DUP2 PUSH2 0x7B3 JUMP JUMPDEST DUP3 MSTORE POP POP JUMP JUMPDEST PUSH2 0x7D6 DUP2 PUSH2 0x670 JUMP JUMPDEST DUP3 MSTORE POP POP JUMP JUMPDEST PUSH0 PUSH1 0x60 DUP3 ADD SWAP1 POP DUP2 DUP2 SUB PUSH0 DUP4 ADD MSTORE PUSH2 0x7F4 DUP2 DUP7 PUSH2 0x77B JUMP JUMPDEST SWAP1 POP PUSH2 0x803 PUSH1 0x20 DUP4 ADD DUP6 PUSH2 0x7BE JUMP JUMPDEST PUSH2 0x810 PUSH1 0x40 DUP4 ADD DUP5 PUSH2 0x7CD JUMP JUMPDEST SWAP5 SWAP4 POP POP POP POP JUMP JUMPDEST PUSH0 PUSH1 0x20 DUP3 ADD SWAP1 POP PUSH2 0x82B PUSH0 DUP4 ADD DUP5 PUSH2 0x7CD JUMP JUMPDEST SWAP3 SWAP2 POP POP JUMP JUMPDEST PUSH32 0x5573657220616C72656164792072656769737465726564000000000000000000 PUSH0 DUP3 ADD MSTORE POP JUMP JUMPDEST PUSH0 PUSH2 0x865 PUSH1 0x17 DUP4 PUSH2 0x75D JUMP JUMPDEST SWAP2 POP PUSH2 0x870 DUP3 PUSH2 0x831 JUMP JUMPDEST PUSH1 0x20 DUP3 ADD SWAP1 POP SWAP2 SWAP1 POP JUMP JUMPDEST PUSH0 PUSH1 0x20 DUP3 ADD SWAP1 POP DUP2 DUP2 SUB PUSH0 DUP4 ADD MSTORE PUSH2 0x892 DUP2 PUSH2 0x859 JUMP JUMPDEST SWAP1 POP SWAP2 SWAP1 POP JUMP JUMPDEST PUSH32 0x4E487B7100000000000000000000000000000000000000000000000000000000 PUSH0 MSTORE PUSH1 0x22 PUSH1 0x4 MSTORE PUSH1 0x24 PUSH0 REVERT JUMPDEST PUSH0 PUSH1 0x2 DUP3 DIV SWAP1 POP PUSH1 0x1 DUP3 AND DUP1 PUSH2 0x8DD JUMPI PUSH1 0x7F DUP3 AND SWAP2 POP JUMPDEST PUSH1 0x20 DUP3 LT DUP2 SUB PUSH2 0x8F0 JUMPI PUSH2 0x8EF PUSH2 0x899 JUMP JUMPDEST JUMPDEST POP SWAP2 SWAP1 POP JUMP JUMPDEST PUSH0 DUP2 SWAP1 POP DUP2 PUSH0 MSTORE PUSH1 0x20 PUSH0 KECCAK256 SWAP1 POP SWAP2 SWAP1 POP JUMP JUMPDEST PUSH0 PUSH1 0x20 PUSH1 0x1F DUP4 ADD DIV SWAP1 POP SWAP2 SWAP1 POP JUMP JUMPDEST PUSH0 DUP3 DUP3 SHL SWAP1 POP SWAP3 SWAP2 POP POP JUMP JUMPDEST PUSH0 PUSH1 0x8 DUP4 MUL PUSH2 0x952 PUSH32 0xFFFFFFFFFFFFFFFFFFFFFFFFFFFFFFFFFFFFFFFFFFFFFFFFFFFFFFFFFFFFFFFF DUP3 PUSH2 0x917 JUMP JUMPDEST PUSH2 0x95C DUP7 DUP4 PUSH2 0x917 JUMP JUMPDEST SWAP6 POP DUP1 NOT DUP5 AND SWAP4 POP DUP1 DUP7 AND DUP5 OR SWAP3 POP POP POP SWAP4 SWAP3 POP POP POP JUMP JUMPDEST PUSH0 DUP2 SWAP1 POP SWAP2 SWAP1 POP JUMP JUMPDEST PUSH0 PUSH2 0x997 PUSH2 0x992 PUSH2 0x98D DUP5 PUSH2 0x670 JUMP JUMPDEST PUSH2 0x974 JUMP JUMPDEST PUSH2 0x670 JUMP JUMPDEST SWAP1 POP SWAP2 SWAP1 POP JUMP JUMPDEST PUSH0 DUP2 SWAP1 POP SWAP2 SWAP1 POP JUMP JUMPDEST PUSH2 0x9B0 DUP4 PUSH2 0x97D JUMP JUMPDEST PUSH2 0x9C4 PUSH2 0x9BC DUP3 PUSH2 0x99E JUMP JUMPDEST DUP5 DUP5 SLOAD PUSH2 0x923 JUMP JUMPDEST DUP3 SSTORE POP POP POP POP JUMP JUMPDEST PUSH0 SWAP1 JUMP JUMPDEST PUSH2 0x9D8 PUSH2 0x9CC JUMP JUMPDEST PUSH2 0x9E3 DUP2 DUP5 DUP5 PUSH2 0x9A7 JUMP JUMPDEST POP POP POP JUMP JUMPDEST JUMPDEST DUP2 DUP2 LT ISZERO PUSH2 0xA06 JUMPI PUSH2 0x9FB PUSH0 DUP3 PUSH2 0x9D0 JUMP JUMPDEST PUSH1 0x1 DUP2 ADD SWAP1 POP PUSH2 0x9E9 JUMP JUMPDEST POP POP JUMP JUMPDEST PUSH1 0x1F DUP3 GT ISZERO PUSH2 0xA4B JUMPI PUSH2 0xA1C DUP2 PUSH2 0x8F6 JUMP JUMPDEST PUSH2 0xA25 DUP5 PUSH2 0x908 JUMP JUMPDEST DUP2 ADD PUSH1 0x20 DUP6 LT ISZERO PUSH2 0xA34 JUMPI DUP2 SWAP1 POP JUMPDEST PUSH2 0xA48 PUSH2 0xA40 DUP6 PUSH2 0x908 JUMP JUMPDEST DUP4 ADD DUP3 PUSH2 0x9E8 JUMP JUMPDEST POP POP JUMPDEST POP POP POP JUMP JUMPDEST PUSH0 DUP3 DUP3 SHR SWAP1 POP SWAP3 SWAP2 POP POP JUMP JUMPDEST PUSH0 PUSH2 0xA6B PUSH0 NOT DUP5 PUSH1 0x8 MUL PUSH2 0xA50 JUMP JUMPDEST NOT DUP1 DUP4 AND SWAP2 POP POP SWAP3 SWAP2 POP POP JUMP JUMPDEST PUSH0 PUSH2 0xA83 DUP4 DUP4 PUSH2 0xA5C JUMP JUMPDEST SWAP2 POP DUP3 PUSH1 0x2 MUL DUP3 OR SWAP1 POP SWAP3 SWAP2 POP POP JUMP JUMPDEST PUSH2 0xA9C DUP3 PUSH2 0x753 JUMP JUMPDEST PUSH8 0xFFFFFFFFFFFFFFFF DUP2 GT ISZERO PUSH2 0xAB5 JUMPI PUSH2 0xAB4 PUSH2 0x505 JUMP JUMPDEST JUMPDEST PUSH2 0xABF DUP3 SLOAD PUSH2 0x8C6 JUMP JUMPDEST PUSH2 0xACA DUP3 DUP3 DUP6 PUSH2 0xA0A JUMP JUMPDEST PUSH0 PUSH1 0x20 SWAP1 POP PUSH1 0x1F DUP4 GT PUSH1 0x1 DUP2 EQ PUSH2 0xAFB JUMPI PUSH0 DUP5 ISZERO PUSH2 0xAE9 JUMPI DUP3 DUP8 ADD MLOAD SWAP1 POP JUMPDEST PUSH2 0xAF3 DUP6 DUP3 PUSH2 0xA78 JUMP JUMPDEST DUP7 SSTORE POP PUSH2 0xB5A JUMP JUMPDEST PUSH1 0x1F NOT DUP5 AND PUSH2 0xB09 DUP7 PUSH2 0x8F6 JUMP JUMPDEST PUSH0 JUMPDEST DUP3 DUP2 LT ISZERO PUSH2 0xB30 JUMPI DUP5 DUP10 ADD MLOAD DUP3 SSTORE PUSH1 0x1 DUP3 ADD SWAP2 POP PUSH1 0x20 DUP6 ADD SWAP5 POP PUSH1 0x20 DUP2 ADD SWAP1 POP PUSH2 0xB0B JUMP JUMPDEST DUP7 DUP4 LT ISZERO PUSH2 0xB4D JUMPI DUP5 DUP10 ADD MLOAD PUSH2 0xB49 PUSH1 0x1F DUP10 AND DUP3 PUSH2 0xA5C JUMP JUMPDEST DUP4 SSTORE POP JUMPDEST PUSH1 0x1 PUSH1 0x2 DUP9 MUL ADD DUP9 SSTORE POP POP POP JUMPDEST POP POP POP POP POP POP JUMP JUMPDEST PUSH2 0xB6B DUP2 PUSH2 0x6ED JUMP JUMPDEST DUP3 MSTORE POP POP JUMP JUMPDEST PUSH0 PUSH1 0x40 DUP3 ADD SWAP1 POP PUSH2 0xB84 PUSH0 DUP4 ADD DUP6 PUSH2 0xB62 JUMP JUMPDEST DUP2 DUP2 SUB PUSH1 0x20 DUP4 ADD MSTORE PUSH2 0xB96 DUP2 DUP5 PUSH2 0x77B JUMP JUMPDEST SWAP1 POP SWAP4 SWAP3 POP POP POP JUMP JUMPDEST PUSH32 0x55736572206E6F74207265676973746572656400000000000000000000000000 PUSH0 DUP3 ADD MSTORE POP JUMP JUMPDEST PUSH0 PUSH2 0xBD3 PUSH1 0x13 DUP4 PUSH2 0x75D JUMP JUMPDEST SWAP2 POP PUSH2 0xBDE DUP3 PUSH2 0xB9F JUMP JUMPDEST PUSH1 0x20 DUP3 ADD SWAP1 POP SWAP2 SWAP1 POP JUMP JUMPDEST PUSH0 PUSH1 0x20 DUP3 ADD SWAP1 POP DUP2 DUP2 SUB PUSH0 DUP4 ADD MSTORE PUSH2 0xC00 DUP2 PUSH2 0xBC7 JUMP JUMPDEST SWAP1 POP SWAP2 SWAP1 POP JUMP JUMPDEST PUSH32 0x4E487B7100000000000000000000000000000000000000000000000000000000 PUSH0 MSTORE PUSH1 0x11 PUSH1 0x4 MSTORE PUSH1 0x24 PUSH0 REVERT JUMPDEST PUSH0 PUSH2 0xC3E DUP3 PUSH2 0x670 JUMP JUMPDEST SWAP2 POP PUSH2 0xC49 DUP4 PUSH2 0x670 JUMP JUMPDEST SWAP3 POP DUP3 DUP3 ADD SWAP1 POP DUP1 DUP3 GT ISZERO PUSH2 0xC61 JUMPI PUSH2 0xC60 PUSH2 0xC07 JUMP JUMPDEST JUMPDEST SWAP3 SWAP2 POP POP JUMP JUMPDEST PUSH0 PUSH1 0x40 DUP3 ADD SWAP1 POP PUSH2 0xC7A PUSH0 DUP4 ADD DUP6 PUSH2 0xB62 JUMP JUMPDEST PUSH2 0xC87 PUSH1 0x20 DUP4 ADD DUP5 PUSH2 0x7CD JUMP JUMPDEST SWAP4 SWAP3 POP POP POP JUMP INVALID LOG2 PUSH5 0x6970667358 0x22 SLT KECCAK256 0xAC 0xAB 0xAA JUMPDEST PUSH12 0x3BFF44868E9C88BF1B51F324 0xD5 0xE1 0xC5 0xB4 PUSH9 0x2AD5524697390FD4DD DELEGATECALL PUSH5 0x736F6C6343 STOP ADDMOD BYTE STOP CALLER "
				},
				"gasEstimates": {
					"creation": {
						"codeDepositCost": "653600",
						"executionCost": "687",
						"totalCost": "654287"
					},
					"external": {
						"addFitnessPoints(uint256)": "infinite",
						"getUserPoints()": "4814",
						"registerUser(string)": "infinite",
						"users(address)": "infinite"
					}
				},
				"methodIdentifiers": {
					"addFitnessPoints(uint256)": "86b7aa78",
					"getUserPoints()": "c4baff57",
					"registerUser(string)": "704f1b94",
					"users(address)": "a87430ba"
				}
			},
			"storageLayout": {
				"storage": [
					{
						"astId": 6,
						"contract": "contracts/NeroFitness.sol:NeroFitness",
						"label": "users",
						"offset": 0,
						"slot": "0",
						"type": "t_mapping(t_address,t_struct(User)13_storage)"
					}
				],
				"types": {
					"t_address": {
						"encoding": "inplace",
						"label": "address",
						"numberOfBytes": "20"
					},
					"t_bool": {
						"encoding": "inplace",
						"label": "bool",
						"numberOfBytes": "1"
					},
					"t_mapping(t_address,t_struct(User)13_storage)": {
						"encoding": "mapping",
						"key": "t_address",
						"label": "mapping(address => struct NeroFitness.User)",
						"numberOfBytes": "32",
						"value": "t_struct(User)13_storage"
					},
					"t_string_storage": {
						"encoding": "bytes",
						"label": "string",
						"numberOfBytes": "32"
					},
					"t_struct(User)13_storage": {
						"encoding": "inplace",
						"label": "struct NeroFitness.User",
						"members": [
							{
								"astId": 8,
								"contract": "contracts/NeroFitness.sol:NeroFitness",
								"label": "username",
								"offset": 0,
								"slot": "0",
								"type": "t_string_storage"
							},
							{
								"astId": 10,
								"contract": "contracts/NeroFitness.sol:NeroFitness",
								"label": "isRegistered",
								"offset": 0,
								"slot": "1",
								"type": "t_bool"
							},
							{
								"astId": 12,
								"contract": "contracts/NeroFitness.sol:NeroFitness",
								"label": "fitnessPoints",
								"offset": 0,
								"slot": "2",
								"type": "t_uint256"
							}
						],
						"numberOfBytes": "96"
					},
					"t_uint256": {
						"encoding": "inplace",
						"label": "uint256",
						"numberOfBytes": "32"
					}
				}
			},
			"userdoc": {
				"kind": "user",
				"methods": {},
				"version": 1
			}
		}
	}
}